S01300004D4B5F70726F736A656B742E73726563A8
S11300000C9482000C94A1000C94A1000C94A10007
S11300100C94A1000C94A1000C94A1000C94A100D8
S11300200C94A1000C94A1000C94A1000C94A100C8
S11300300C94A1000C94A1000C94A1000C94A100B8
S11300400C94A1000C94A1000C94A1000C94A100A8
S11300500C94A1000C94A1000C94A1000C94A10098
S11300600C94A1000C94A1000C94A1000C94A10088
S11300700C94A1000C94A1000C94A1000C94A10078
S11300800C94A1000C94A1000C94A1000C94A10068
S11300900C94A1000C94A1000C94A1000C94A10058
S11300A00C94A1000C94A1000C94A1000C94A10048
S11300B00C94A1000C94A1000C94A1000C94A10038
S11300C00C94A1000C94A1000C94A1000C94A10028
S11300D00C94A1000C94590A0C94A1000C94A10056
S11300E00C94A1000C94A1000C94A1000C94A10008
S11300F00C94A100410770077C07FB07420AF5082E
S1130100BB09EA0911241FBECFEFCDBFDFE7DEBF75
S113011013E4A0E0B0E4EAEFFDE100E00BBF02C0AD
S113012007900D92AA3DB107D9F724E4AAEDB3E4F0
S113013001C01D92AB36B207E1F70E944D0A0C9440
S1130140FB0E0C940000682F70E080E090E00E94A9
S1130150B20A2AE037ED43E25CE30E941B0B20E085
S113016030E04FE753E40E941B0B0E94810A862F64
S11301700895CF93DF93C82FD62F81110AC0862FFD
S11301800E94A30080932C0AE0E0F4E08081846064
S11301908083C13051F48D2F0E94A3008093290ADB
S11301A0E0E0F4E0808188608083C23051F48D2FD8
S11301B00E94A30080932B0AE0E0F4E08081806138
S11301C08083C33051F48D2F0E94A30080932D0AA5
S11301D0E0E0F4E0808180628083C43051F48D2FAC
S11301E00E94A30080936C0AE0E2F4E080818460C2
S11301F08083C53051F48D2F0E94A3008093690A37
S1130200E0E2F4E0808188608083C63051F48D2F71
S11302100E94A30080936B0AE0E2F4E08081806195
S11302208083C73051F48D2F0E94A30080936D0A00
S1130230E0E2F4E0808180628083DF91CF910895D1
S1130240811104C080E48093120229C0813021F41A
S113025081E48093120223C0823021F482E48093EB
S113026012021DC0833021F483E48093120217C06C
S1130270843021F484E48093120211C0853021F487
S113028085E4809312020BC0863021F486E48093C7
S1130290120205C0873019F487E48093120283E0C8
S11302A080933E0220910C0B30910D0BC901A0E00C
S11302B0B0E00097A105B10579F09C01AD01220FD2
S11302C0331F441F551F60E078ED88EB95E00E94D2
S11302D0D40BCA01B90103C060E070E0CB011092F5
S11302E00C0B10920D0B089581E080934204E0E022
S11302F0FBE01486158612861386808181608083D4
S113030083E18183848181608483089590910210C4
S113031091FDFCCF9DE923E194BF20930010E82FC9
S1130320F0E0FC5E608380E094BF80930010089549
S1130330CF93DF93C82FD62F672F0E9486016D2F8E
S113034081E08C0F0E948601DF91CF910895E82F00
S1130350F0E0FC5E80810895CF93DF93D82F0E9454
S1130360A701C82F81E08D0F0E94A7012C2F30E038
S1130370322F2227A901482BCA01DF91CF9108957A
S1130380803210F08F3731F4873021F08D3011F046
S11303908A3061F49091DB43992321F097E09093A4
S11303A0620802C08093620810926A44883011F097
S11303B08F37B1F42091DC439091DD4329130EC0B3
S11303C090916A44911106C091E090936A4480939D
S11303D06208089587E08093620808958093620814
S11303E0089580E01CC0292F30E04DE0849FF00187
S11303F01124EE58FC4BE20FF31F4081F901ED5E2E
S1130400FB4B2081421304C0211103C08F5F089568
S11304109DE09F5F01C090E09D3028F38F5F88309E
S1130420D0F380E00895883011F08F37B9F49091BB
S1130430DD438091DC43981709F451C08091DD437A
S1130440811104C087E18093DD4305C08091DD43C1
S113045081508093DD431092DB4308959091DB43F8
S1130460992399F02091DC439091DD4330E0291BDE
S113047031092130310549F09091DD43973119F468
S11304809091DC4391111092DB439091DB439111E5
S113049026C0E091DD43F0E0EE5DFB4B808380916C
S11304A0DC432091DD4390E0821B9109019741F0E8
S11304B08091DD43873141F48091DC43811104C094
S11304C081E08093DB4308958091DD438F5F8093C7
S11304D0DD438091DD43883110F01092DD430895AF
S11304E09091DD438091DC43981791F0E091DC43D7
S11304F0F0E0EE5DFB4B80819091DC439F5F909335
S1130500DC439091DC43983120F01092DC43089551
S113051080E00895CF93C0E015C00E94700281115D
S113052002C0CC23A9F0813238F0EC2FF0E0ED5E6C
S1130530FB4B8083CF5F06C0EC2FF0E0ED5EFB4BFE
S1130540108202C0CC3048F310921F4481E001C0F5
S113055080E0CF9108951092DD431092DC43109215
S1130560DB4308959091640895FFFCCF8093620863
S113057008958DE00E94B2028AE00E94B2020895BA
S1130580CF93C0E00AC0EC2FF0E0E65CFB4B808127
S1130590882329F00E94B202CF5FC033A0F3CF9129
S11305A0089588ED84BF8CE080936800089520E06E
S11305B030E040E050E009C0F901ED5EFB4B9053A0
S11305C090834F5F5F4F2F5F3F4FF901ED5EFB4B11
S11305D090819111F1CFCA01089580910040882340
S11305E051F08BE0EEE2F0E4AAE3B4E401900D9262
S11305F08A95E1F708958CE0E9E3F0E4AAE3B4E432
S113060001900D928A95E1F708950E94B90283E161
S1130610E5E4F0E4AAE3B4E401900D928A95E1F7ED
S11306200E94C0020E94AB0281E080936A4410924F
S1130630DE4308958D5E9B4BFC0180818A3080F0FF
S113064086E1E8E5F0E4AAE3B4E401900D928A952A
S1130650E1F70E94C0020E94B90284E991E0089582
S113066090E00895813049F480E090E00E941A03FC
S113067080932044909321446FC0823011F580E030
S113068090E00E941A03809320449093214481E0D7
S113069090E00E941A0380930F4490931044209199
S11306A0204430912144A901440F551F220F331FC8
S11306B0220F331F220F331F240F351F820F931F66
S11306C04BC0833009F046C080E090E00E941A03DA
S11306D0809320449093214481E090E00E941A0387
S11306E080930F44909310442091204430912144EE
S11306F02130310511F4892BE9F08BE2EEE6F0E4C8
S1130700AAE3B4E401900D928A95E1F70E94C00235
S11307100E94B90282E2E9E9F0E4AAE3B4E40190B8
S11307200D928A95E1F70E94C0020E94B90284E901
S113073091E012C081E2EBEBF0E4AAE3B4E40190AF
S11307400D928A95E1F70E94C0020E94B90284E6E4
S113075090E002C080E090E085369105DCF08CE00A
S1130760ECEDF0E4AAE3B4E401900D928A95E1F78C
S11307700E94C0020E94B9028AE0E8EEF0E4AAE313
S1130780B4E401900D928A95E1F70E94C0020E94A0
S1130790B90204C08093114490931244809111448F
S11307A09091124408950F931F93CF93DF93C091B8
S11307B01344D0E0E0970E948A02882309F463C0BE
S11307C00E94D7028C010197C1F4809113448111D6
S11307D00DC087E2E2EFF0E4AAE3B4E401900D92E5
S11307E08A95E1F70E94C0020E94B90281E00E944A
S11307F03203809311449093124402301105C9F4DA
S11308008091134481110EC08CE1E9E1F1E4AAE383
S1130810B4E401900D928A95E1F70E94C0020E940F
S1130820B90207C082E00E9432038093114490937E
S113083012440330110539F483E00E94320380939B
S1130840114490931244DF93CF9385E391E49F93F3
S11308508F938AE394E49F938F930E941E0C0E94CB
S1130860C0028EE0ECE3F1E4AAE3B4E401900D925B
S11308708A95E1F70E94C0020F900F900F900F909D
S11308800F900F900BC083E1EAE4F1E4AAE3B4E42F
S113089001900D928A95E1F70E94C0028091114463
S11308A090911244DF91CF911F910F9108950E946E
S11308B0B90285E1EDE5F1E4AAE3B4E401900D9217
S11308C08A95E1F70E94C00286E1E2E7F1E4AAE337
S11308D0B4E401900D928A95E1F70E94C0020E944F
S11308E0B9020E94B9020895CF93C82F0E94200133
S11308F08FE39CE90197F1F700C000008C2F0E9460
S11309002001CB01CF910895AF92BF92DF92EF9275
S1130910FF920F931F93CF93DF93D82E0E947404FA
S11309209C01990F440B550BC0E0D0E009C0CA01EB
S1130930B9012AE030E040E050E00E94D40B219657
S1130940211531054105510591F7209729F45E01E0
S11309508FEFA81AB80A05C05E0191E0A91AB10880
S113096023970E94B90200E010E00AC080E290E000
S113097080933A4490933B440E94C0020F5F1F4F00
S1130980C017D1079CF780E1E8E8F1E4AAE3B4E4F6
S113099001900D928A95E1F70E94C00200E010E0F8
S11309A00AC080E290E080933A4490933B440E94D2
S11309B0C0020F5F1F4FA016B1069CF78CE790E0B2
S11309C080933A4490933B440E94C0020E94B9022F
S11309D000E010E00AC080E290E080933A449093F3
S11309E03B440E94C0020F5F1F4FC017D1079CF702
S11309F0CAE3D4E48FE0E8E9F1E4DE0101900D926A
S1130A008A95E1F70E94C002ED2CF12C1F92DF922F
S1130A1089E391E49F938F93DF93CF930E941E0CFD
S1130A200E94C0020F900F900F900F900F900F90A4
S1130A30C0E0D0E009C080E290E080933A44909313
S1130A403B440E94C0022196AC16BD06A4F78CE775
S1130A5090E080933A4490933B440E94C0020E94E9
S1130A60B90200E010E042C0CAE3D4E489E0E7EA56
S1130A70F1E4DE0101900D928A95E1F70E94C00233
S1130A80FF92EF9289E391E49F938F93DF93CF9347
S1130A900E941E0C0E94C00289E0E0EBF1E4DE013A
S1130AA001900D928A95E1F70E94C0028D2D0E945B
S1130AB020019F938F937F936F9389EB91E49F938E
S1130AC08F93DF93CF930E941E0C0E94C0028CE789
S1130AD090E0888399830E94C0020E94B9020F5F4C
S1130AE01F4F8DB79EB70E968DBF9EBF0B3011055D
S1130AF00CF4BACFDF91CF911F910F91FF90EF903B
S1130B00DF90BF90AF9008955F926F927F928F9223
S1130B109F92AF92BF92CF92DF92EF92FF920F9388
S1130B201F93CF93DF93682E562EC0E0D0E00CC005
S1130B3086E1EDEBF1E4AAE3B4E401900D928A9529
S1130B40E1F70E94C0022196C430D1058CF30E94C3
S1130B50B902660C660C6394712CE30129C00AE3A4
S1130B6014E489E0E7EAF1E4D80101900D928A9552
S1130B70E1F70E94C002DF93CF9389E391E49F934E
S1130B808F931F930F930E941E0C0E94C0028DE04E
S1130B90E3EDF1E4D80101900D928A95E1F70E940A
S1130BA0C00221960F900F900F900F900F900F900E
S1130BB0730183E0E80EF11CEC16FD0684F60E9436
S1130BC0B902C12CD12C53C0CAE3D4E489E0E7EACA
S1130BD0F1E4DE0101900D928A95E1F70E94C002D2
S1130BE01F930F9389E391E49F938F93DF93CF93A4
S1130BF00E941E0C0E94C002802F0E9474044C01AB
S1130C00990FAA08BB0889E0E0EBF1E4DE0101904A
S1130C100D928A95E1F70E94C002BF92AF929F9213
S1130C208F9289EB91E49F938F93DF93CF930E94EC
S1130C301E0C0E94C00280E29CE78883998380E2B4
S1130C4090E08A839B830E94C0020F5F1F4F8DB781
S1130C509EB70E968DBF9EBF01C08301E016F106BC
S1130C600CF0B2CF0E94B9029FEFC91AD90A852DA0
S1130C7090E0C816D9068CF30E94B902DF91CF9197
S1130C801F910F91FF90EF90DF90CF90BF90AF90A6
S1130C909F908F907F906F905F9008950E9457046B
S1130CA065E080E00E94840565E081E00E9484059F
S1130CB00895E0E6F8E082E896E080879187109254
S1130CC0E205A0E2B4E08C9181608C9380E8858396
S1130CD080EC868383E0878312860895CF93C09146
S1130CE06008CA3051F0CD3061F0C1110DC080915F
S1130CF000408095809300400AC08091DA438D3093
S1130D0031F081E08093DE438C2F0E9413028091A6
S1130D100040882339F08091640885FF03C08C2F3C
S1130D200E94C001C093DA43CF9108950E94170C2A
S1130D300E94C0020895CF93DF93C0E0D0E005C0C5
S1130D4060E08C2F0E94B9002196C830D105C4F30D
S1130D5060EE71E48AE394E40E949606DF91CF91F9
S1130D600895CF93DF93C0E0D0E005C064E68C2FF4
S1130D700E94B9002196C830D105C4F362E072E440
S1130D808AE394E40E949606DF91CF9108957F93BD
S1130D906F9329E331E43F932F939F938F930E94A2
S1130DA01E0C0E94C0020F900F900F900F900F9096
S1130DB00F90089510922244089567E272E483E14B
S1130DC094E40E940E0C892B79F48FEF80930040F9
S1130DD088E0E2E2F2E4AAE3B4E401900D928A9599
S1130DE0E1F70E94C00208956FE272E483E194E4A3
S1130DF00E940E0C892B71F41092004089E0EAE203
S1130E00F2E4AAE3B4E401900D928A95E1F70E941A
S1130E10C00208958CE1E3E3F2E4AAE3B4E40190B0
S1130E200D928A95E1F70E94C00263E174E48AE3BB
S1130E3094E40E94170C0E94C0020E94B902089513
S1130E40CF92DF92EF92FF920F931F93CF93DF9392
S1130E508091DE43882309F417C30E94B9020E94DB
S1130E608A02882309F40EC30E94F10190E0FC0178
S1130E703197E830F10508F0FFC2E658FF4F0C94B3
S1130E80F60B0E948A0281110CC08EE1EFE4F2E4B9
S1130E90AAE3B4E401900D928A95E1F70E94C0029E
S1130EA0F1C267E272E483E194E40E940E0C892BA0
S1130EB019F40E949B06E6C26FE272E483E194E4B3
S1130EC00E940E0C892B19F40E94B106DBC26DE658
S1130ED072E48AE394E40E9496060E94B902D2C2A4
S1130EE00E948A02811105C00E94ED020E94C00284
S1130EF0C9C20E94DD06C6C20E948A02811107C0CF
S1130F006FE872E48AE394E40E949606BBC263E34A
S1130F1071E483E194E40E940E0C892B21F480E0B7
S1130F200E948404AFC26EEA72E483E194E40E94F6
S1130F300E0C892B21F481E00E948404A3C260EB8F
S1130F4072E483E194E40E940E0C892B21F482E084
S1130F500E94840497C262EB72E483E194E40E94E9
S1130F600E0C892B21F483E00E9484048BC264EB71
S1130F7072E483E194E40E940E0C892B21F484E052
S1130F800E9484047FC266EB72E483E194E40E94CD
S1130F900E0C892B21F485E00E94840473C268EB53
S1130FA072E483E194E40E940E0C892B21F486E020
S1130FB00E94840467C26AEB72E483E194E40E94B1
S1130FC00E0C892B21F487E00E9484045BC26CEB35
S1130FD072E483E194E40E940E0C892B19F40E94BC
S1130FE04E0650C260EC72E48AE394E40E949606D2
S1130FF00E94B90247C20E948A02811107C06BEDA8
S113100072E48AE394E40E9496063CC263E371E4CA
S113101083E194E40E940E0C892B99F40E94D3037B
S113102080930D4490930E44682F80E00E94B90091
S113103060910D4470910E448AE394E40E94C706C3
S113104021C26EEA72E483E194E40E940E0C892BBF
S113105099F40E94D30380930B4490930C44682F1B
S113106081E00E94B90060910B4470910C448AE3C2
S113107094E40E94C70606C260EB72E483E194E440
S11310800E940E0C892B99F40E94D3038093094487
S113109090930A44682F82E00E94B9006091094449
S11310A070910A448AE394E40E94C706EBC162EBA0
S11310B072E483E194E40E940E0C892B99F40E945B
S11310C0D3038093074490930844682F83E00E94DD
S11310D0B90060910744709108448AE394E40E9443
S11310E0C706D0C164EB72E483E194E40E940E0C61
S11310F0892B99F40E94D30380930544909306446A
S1131100682F84E00E94B900609105447091064400
S11311108AE394E40E94C706B5C166EB72E483E1F6
S113112094E40E940E0C892B99F40E94D3038093BB
S1131130034490930444682F85E00E94B9006091B1
S11311400344709104448AE394E40E94C7069AC15C
S113115068EB72E483E194E40E940E0C892B99F409
S11311600E94D3038093014490930244682F86E045
S11311700E94B90060910144709102448AE394E4AE
S11311800E94C7067FC16AEB72E483E194E40E9483
S11311900E0C892B99F40E94D3038093FF43909300
S11311A00044682F87E00E94B9006091FF4370916A
S11311B000448AE394E40E94C70664C16CEB72E4C1
S11311C083E194E40E940E0C892B09F45BC18AE14B
S11311D0E9EFF2E4AAE3B4E401900D928A95E1F711
S11311E00E94C0020E94B9024DC10E949B060E9447
S11311F0B90280E00E94AC01CFEED3E488839983E6
S113120082E00E94AC018A839B8384E00E94AC014B
S11312108C839D8386E00E94AC018E839F8388E04B
S11312200E94AC01888799878AE00E94AC018A8772
S11312309B878CE00E94AC018C879D878EE00E9486
S1131240AC018E879F87C0E0D0E060C08C2F0E94E5
S11312507404FC01CE01880F991FDC01A152BC4B20
S1131260ED93FC93DC01A151BC4B4D915C91411574
S1131270510509F44AC083E1849F9001859F300D94
S11312801124ADECBCEC0E94FF0B8C01129502956D
S11312900F7001271F7001279F010E94FF0B929579
S11312A082958F7089279F708927080F191FFE0167
S11312B0EE0FFF1FE152FC4B00831183BA0180E063
S11312C090E00E94B00A24EA30E74DE75FE30E9411
S11312D01B0B6B017C01B80180E090E00E94B00A16
S11312E09B01AC01C701B6010E94160B18166CF4E1
S11312F063E173E48AE394E40E949606BE018AE300
S113130094E40E94C7060E94B9022196C830D10510
S11313100CF49CCFCFEDD3E46881798180E00E9406
S113132098016A817B8182E00E9498016C817D81B1
S113133084E00E9498016E817F8186E00E9498017A
S11313406885798588E00E9498016A857B858AE0B2
S11313500E9498016C857D858CE00E9498016E85C1
S11313607F858EE00E9498016BE273E48AE394E443
S11313700E94960687C060E070E080E00E949801B9
S113138060E070E082E00E94980160E070E084E038
S11313900E94980160E070E086E00E94980160E09D
S11313A070E088E00E94980160E070E08AE00E94AA
S11313B0980160E070E08CE00E94980160E070E0C9
S11313C08EE00E94980167E373E48AE394E40E9448
S11313D0960658C080E00E94AC01CFEED3E4888327
S11313E0998382E00E94AC018A839B8384E00E94FB
S11313F0AC018C839D8386E00E94AC018E839F8325
S113140088E00E94AC01888799878AE00E94AC0139
S11314108A879B878CE00E94AC018C879D878EE035
S11314200E94AC018E879F870E94B902C0E0D0E081
S11314301FC06DE473E48AE394E40E949606BE013F
S11314408AE394E40E94C70665E570E48AE394E4C1
S11314500E949606FE01EE0FFF1FE151FC4B6081D6
S113146071818AE394E40E94C7060E94B90221961E
S1131470C830D105F4F206C061E673E48AE394E46B
S11314800E9496060E940503DF91CF911F910F9150
S1131490FF90EF90DF90CF9008950E94DA060E94AB
S11314A0D1020E9459060E94740178940E94200778
S11314B0FDCF1F920F920FB60F9211240BB60F920D
S11314C02F933F934F935F936F937F938F939F9348
S11314D0AF93BF93EF93FF930E946E06FF91EF913A
S11314E0BF91AF919F918F917F916F915F914F9138
S11314F03F912F910F900BBE0F900FBE0F901F9036
S113150018950E94F50A88F09F5798F0B92F9927EB
S1131510B751B0F0E1F0660F771F881F991F1AF0DA
S1131520BA95C9F714C0B13091F00E940F0BB1E025
S113153008950C940F0B672F782F8827B85F39F024
S1131540B93FCCF3869577956795B395D9F73EF473
S113155090958095709561957F4F8F4F9F4F08951B
S1131560E89409C097FB3EF4909580957095619539
S11315707F4F8F4F9F4F9923A9F0F92F96E9BB27EF
S11315809395F695879577956795B795F111F8CF6B
S1131590FAF4BB0F11F460FF1BC06F5F7F4F8F4FD6
S11315A09F4F16C0882311F096E911C0772321F0CC
S11315B09EE8872F762F05C0662371F096E8862F64
S11315C070E060E02AF09A95660F771F881FDAF7BB
S11315D0880F9695879597F9089557FD9058440F6D
S11315E0551F59F05F3F71F04795880F97FB991F7E
S11315F061F09F3F79F0879508951216130614063B
S1131600551FF2CF4695F1DF08C0161617061806C7
S1131610991FF1CF86957105610508940895E894A2
S1131620BB2766277727CB0197F908950E94880B7B
S113163008F48FEF08950E942E0B0C94C30B0E94A4
S1131640B50B38F00E94BC0B20F0952311F00C94DC
S1131650AC0B0C94B20B11240C94100B0E94ED0AE9
S113166070F3959FC1F3950F50E0551F629FF001F1
S1131670729FBB27F00DB11D639FAA27F00DB11D0A
S1131680AA1F649F6627B00DA11D661F829F222793
S1131690B00DA11D621F739FB00DA11D621F839F1A
S11316A0A00D611D221F749F3327A00D611D231FF0
S11316B0849F600D211D822F762F6A2F11249F573E
S11316C050409AF0F1F088234AF0EE0FFF1FBB1F41
S11316D0661F771F881F91505040A9F79E3F510500
S11316E080F00C94AC0B0C94100B5F3FE4F3983E29
S11316F0D4F3869577956795B795F795E7959F5FAA
S1131700C1F7FE2B880F911D9695879597F908953B
S1131710990F0008550FAA0BE0E8FEEF16161706FE
S1131720E807F907C0F012161306E407F50798F066
S1131730621B730B840B950B39F40A2661F0232B7F
S1131740242B252B21F408950A2609F4A140A695FB
S11317508FEF811D811D089597F99F6780E870E0E0
S113176060E008959FEF80EC089500240A94161613
S1131770170618060906089500240A94121613067B
S1131780140605060895092E0394000C11F4882309
S113179052F0BB0F40F4BF2B11F460FF04C06F5F25
S11317A07F4F8F4F9F4F0895A1E21A2EAA1BBB1B98
S11317B0FD010DC0AA1FBB1FEE1FFF1FA217B30719
S11317C0E407F50720F0A21BB30BE40BF50B661F2F
S11317D0771F881F991F1A9469F7609570958095F3
S11317E090959B01AC01BD01CF010895EE0FFF1F41
S11317F00024001C0BBE0790F691E02D0994A29FD3
S1131800B001B39FC001A39F700D811D1124911DD0
S1131810B29F700D811D1124911D0895FB01DC01FF
S11318208D91019080190110D9F3990B0895FB0152
S1131830DC0101900D920020E1F708950F931F93AE
S1131840CF93DF93CDB7DEB72E97CDBFDEBF0D8923
S11318501E8986E08C8309831A838FEF9FE78D832B
S11318609E83AE01475E5F4F6F89788DCE010196EE
S11318700E94470CEF81F885E00FF11F10822E962D
S1131880CDBFDEBFDF91CF911F910F9108952F92AD
S11318903F924F925F926F927F928F929F92AF92FC
S11318A0BF92CF92DF92EF92FF920F931F93CF9349
S11318B0DF93CDB7DEB72B97CDBFDEBF6C017B01C5
S11318C08A01FC0116821782838181FFCCC1CE017B
S11318D001963C01F6019381F70193FD859193FFF5
S11318E081917F01882309F4BAC1853239F493FDCB
S11318F0859193FF81917F01853229F4B60190E0AF
S11319000E94610EE7CF912C212C312CFFE1F315BD
S1131910D8F08B3279F038F4803279F08332A1F444
S1131920232D20611DC08D3261F0803369F4232D95
S1131930216016C0832D8260382EE32DE4603E2E94
S11319402AC0F32DF8601DC037FC2DC020ED280FF0
S11319502A3040F08E32B9F436FC81C1232D206444
S1131960322E19C036FE06C08AE0989E200D11243E
S1131970922E11C0EAE02E9E200D1124222EF32D6A
S1131980F0623F2E08C08C3621F4832D8068382EF7
S113199002C0883641F4F70193FD859193FF81914C
S11319A07F018111B3CF982F9F7D9554933028F4F4
S11319B00C5F1F4F9FE399830DC0833631F083374B
S11319C071F0833509F059C021C0F8018081898301
S11319D00E5F1F4F88248394912C530113C0280158
S11319E0F2E04F0E511CF801A080B18036FE03C016
S11319F0692D70E002C06FEF7FEFC5010E94560EA3
S1131A004C018201F32DFF773F2E16C0280122E0FE
S1131A10420E511CF801A080B18036FE03C0692D2E
S1131A2070E002C06FEF7FEFC5010E944B0E4C01C6
S1131A30F32DF0683F2E820133FC1BC0822D90E011
S1131A4088169906B0F4B60180E290E00E94610E17
S1131A502A94F4CFF50137FC859137FE81915F011B
S1131A60B60190E00E94610E21102A9421E0821AAE
S1131A7091088114910471F7E8C0843611F0893615
S1131A8041F5F80137FE07C060817181828193813D
S1131A900C5F1F4F08C060817181072E000C880BFA
S1131AA0990B0E5F1F4FF32DFF763F2E97FF09C052
S1131AB090958095709561957F4F8F4F9F4FF068FB
S1131AC03F2E2AE030E0A3010E949D0E882E861846
S1131AD045C0853731F4232D2F7EB22E2AE030E025
S1131AE025C0932D997FB92E8F36C1F018F488350F
S1131AF079F0B5C0803719F0883721F0B0C0E92FEC
S1131B00E061BE2EB4FE0DC0FB2DF460BF2E09C0F3
S1131B1034FE0AC0292F2660B22E06C028E030E029
S1131B2005C020E130E002C020E132E0F801B7FE58
S1131B3007C060817181828193810C5F1F4F06C051
S1131B406081718180E090E00E5F1F4FA3010E94CD
S1131B509D0E882E8618FB2DFF773F2E36FE0DC076
S1131B60232D2E7FA22E891458F434FE0BC032FC90
S1131B7009C0832D8E7EA82E05C0B82CA32C03C0CB
S1131B80B82C01C0B92CA4FE0FC0FE01E80DF11D54
S1131B908081803321F49A2D997EA92E09C0A2FE5A
S1131BA006C0B394B39404C08A2D867809F0B39424
S1131BB0A3FC11C0A0FE06C0B21488F4280C922C19
S1131BC09B180EC0B21460F4B60180E290E00E944B
S1131BD0610EB394F7CFB21418F42B1802C0982CEA
S1131BE0212CA4FE10C0B60180E390E00E94610E97
S1131BF0A2FE17C0A1FC03C088E790E002C088E5FC
S1131C0090E0B6010CC08A2D867859F0A1FE02C07E
S1131C108BE201C080E2A7FC8DE2B60190E00E9455
S1131C20610E891438F4B60180E390E00E94610EDD
S1131C309A94F7CF8A94F301E80DF11D8081B601DF
S1131C4090E00E94610E8110F5CF222009F442CE6B
S1131C50B60180E290E00E94610E2A94F6CFF6016C
S1131C608681978102C08FEF9FEF2B96CDBFDEBF99
S1131C70DF91CF911F910F91FF90EF90DF90CF9064
S1131C80BF90AF909F908F907F906F905F904F9098
S1131C903F902F900895FC01059061507040011011
S1131CA0D8F7809590958E0F9F1F0895FC01615081
S1131CB0704001900110D8F7809590958E0F9F1F6A
S1131CC008950F931F93CF93DF93FB01238121FD8D
S1131CD003C08FEF9FEF2CC022FF16C046815781AF
S1131CE0248135814217530744F4A081B1819D01B9
S1131CF02F5F3F4F208331838C93268137812F5F61
S1131D003F4F2683378314C08B01EC01FB01008411
S1131D10F185E02D0995892BE1F6D80116968D9170
S1131D209C911797019616968D939C931797CE01C5
S1131D30DF91CF911F910F910895FA01AA272830BE
S1131D4051F1203181F1E8946F936E7F6E5F7F4F84
S1131D508F4F9F4FAF4FB1E03ED0B4E03CD0670F00
S1131D60781F891F9A1FA11D680F791F8A1F911D53
S1131D70A11D6A0F711D811D911DA11D20D009F4A3
S1131D8068943F912AE0269F11243019305D3193E5
S1131D90DEF6CF010895462F4770405D4193B3E0CE
S1131DA00FD0C9F7F6CF462F4F70405D4A3318F075
S1131DB0495D31FD4052419302D0A9F7EACFB4E026
S1131DC0A6959795879577956795BA95C9F70097DE
S1131DD06105710508959B01AC010A2E069457957F
S1131DE0479537952795BA95C9F7620F731F841FD6
S10D1DF0951FA01D0895F894FFCF7D
S1131DFAFF417661696C61626C6520636F6D6D6128
S1131E0A6E64733A00416C6C2C20636F6D6D616E65
S1131E1A6420666F7220746F67676C65200045637F
S1131E2A686F206973206F6E004563686F20697359
S1131E3A206F666600577269746520616E20636F4D
S1131E4A6D6D616E643A2000506C6561736520653E
S1131E5A6E7465722061206E756D626572004E75CE
S1131E6A6D62657220697320677265617465722098
S1131E7A7468656E20313030206F72206E6F742062
S1131E8A61206E756D6265720050757420696E20EA
S1131E9A61206E756D626572206265747765656E20
S1131EAA203020616E642031303000417267756DD4
S1131EBA656E74206973203130302C2050574D20C0
S1131ECA69732066756C6C79206F6E0057726F6E39
S1131EDA6720496E7075740054727920616761696C
S1131EEA6E00417267756D656E7420697320302CBB
S1131EFA2050574D206F66662C2066616E206675E9
S1131F0A6C6C20706F77657200417267756D656ECF
S1131F1A742063616E277420737461727420776904
S1131F2A746820300046616E202575002077726936
S1131F3A7474656E20746F3A20004E6F206E756D4E
S1131F4A62657220617267756D656E740020205433
S1131F5A4143484F202D2056414C554553202020BB
S1131F6A7C00202020202020414C4C2046414E5306
S1131F7A2020202020207C0020544143484F202D3B
S1131F8A2056414C55455300202046414E20434893
S1131F9A414E4E454C20004368616E6E656C2000CC
S1131FAA2076616C75653A2000256C75002D2D2DFF
S1131FBA2D2D2D2D2D2D2D2D2D2D2D2D2D2D2D2D43
S1131FCA2D2000202020202020202020207C2000DA
S1131FDA50574D206F666620616C6C2066616E7383
S1131FEA2C2066616E732066756C6C20706F776541
S1131FFA720050574D2066756C6C79206F6E2061A3
S113200A6C6C2066616E732C2066616E73206F6639
S113201A66004563686F206F6E004563686F206FC2
S113202A6666006563686F207769746820696E6301
S113203A6F72726563742073796E746178200041DB
S113204A6C6C20636F6D6D616E64207769746820AF
S113205A6E6F20617267756D656E747300416C6C86
S113206A20636F6D6D616E64207769746820696E90
S113207A636F72726563742073796E746178005247
S113208A65616420636F6D6D616E6420776974683D
S113209A206E6F20617267756D656E74730031000E
S11320AA320033003400350036003700616C6C00AE
S11320BA52656164207769746820696E636F72720D
S11320CA6563742073796E7461780046616E206367
S11320DA6F6D6D616E642077697468206E6F20611C
S11320EA7267756D656E74730046616E20776974E4
S11320FA6820696E636F72726563742073796E7493
S113210A6178004661756C742070726564696374E1
S113211A656420696E2066616E2000536176696E7B
S113212A6720646F6E6500454550524F4D206861C3
S113213A73206265656E20726573657400547265F6
S113214A6E64206461746120666F722066616E2019
S113215A00556E6B6E6F776E20636F6D6D616E6482
S113216A2100616C6C0000000000000000000065A2
S113217A63686F000000000000000000726561647B
S113218A00000000000000000066616E000000000C
S113219A00000000000068656C7000000000000088
S11321AA0000007361766500000000000000000072
S11321BA72657365745F656570726F6D00747265BC
S10D21CA6E645F646174610000003C
S9030000FC
