:100000000C942A010C9449010C9449010C94490167
:100010000C9449010C94C60C0C9449010C944901B0
:100020000C9449010C9449010C9449010C94490128
:100030000C9449010C9449010C9449010C94490118
:100040000C9449010C9449010C9449010C94490108
:100050000C9449010C9449010C9449010C944901F8
:100060000C9449010C9449010C9449010C944901E8
:100070000C9449010C9449010C9449010C944901D8
:100080000C9449010C9449010C9449010C944901C8
:100090000C9449010C9449010C9449010C944901B8
:1000A0000C9449010C9449010C9449010C944901A8
:1000B0000C9449010C9449010C9449010C94490198
:1000C0000C9449010C9449010C9449010C94490188
:1000D0000C9449010C94F10C0C9449010C944901C5
:1000E0000C9449010C9449010C9449010C94490168
:1000F0000C9449010E0B3B0B470BC20BAE0CB10C21
:10010000B40CB70C6E616E00696E660000407A1028
:10011000F35A00A0724E18090010A5D4E80000E8B8
:100120007648170000E40B54020000CA9A3B000016
:1001300000E1F505000080969800000040420F00A5
:100140000000A08601000000102700000000E80366
:10015000000000006400000000000A000000000031
:100160000100000000002C76D888DC674F0823DFF0
:10017000C1DFAE59E1B1B796E5E3E453C63AE651C3
:10018000997696E8E6C28426EB898C9B62ED407CEA
:100190006FFCEFBC9C9F40F2BAA56FA5F490055A86
:1001A0002AF75C936B6CF9676DC11BFCE0E40D47AB
:1001B000FEF520E6B500D0ED902E030094357705CE
:1001C0000080841E080000204E0A000000C80C3386
:1001D0003333330F986E12831141EF8D2114893B15
:1001E000E65516CFFEE6DB18D1844B381BF77C1D95
:1001F000901DA4BBE424203284725E228100C9F1E8
:1002000024ECA1E53D276364696E6F7073757858BF
:100210005B65666745464700616E006E66696E699C
:10022000747900CDCCCC3D0AD7233C17B7D13877B1
:10023000CC2B329595E6241FB14F0A0000204100D7
:1002400000C84200401C4620BCBE4CCA1B0E5AAE21
:10025000C59D740011241FBECFEFCDBFDFE7DEBF09
:1002600014E4A0E0B0E4E4EBF4E300E00BBF02C070
:1002700007900D92A63AB107D9F725E4A6EAB4E4AF
:1002800001C01D92AD34B207E1F70E94C10C0C947D
:10029000581A0C940000682F70E080E090E00E94F3
:1002A000B70D2AE037ED43E25CE30E94480E20E000
:1002B00030E04FE753E40E94480E0E94860D862FDF
:1002C0000895CF93DF93C82FD62F81110AC0862FB0
:1002D0000E944B018093280AE0E6F4E0808181606F
:1002E0008083C13051F48D2F0E944B0180932A0AE4
:1002F000E0E6F4E0808182608083C23051F48D2F8B
:100300000E944B0180932C0AE0E6F4E08081846037
:100310008083C33051F48D2F0E944B018093290AB2
:10032000E0E6F4E0808188608083C43051F48D2F52
:100330000E944B0180936C0AE0E2F4E080818260CD
:100340008083C53051F48D2F0E944B018093690A40
:10035000E0E2F4E0808184608083C63051F48D2F28
:100360000E944B0180936B0AE0E2F4E0808180619F
:100370008083C73051F48D2F0E944B0180936D0A0A
:10038000E0E2F4E0808180628083DF91CF91089584
:10039000811104C080E48093120229C0813021F4CD
:1003A00081E48093120223C0823021F482E480939E
:1003B00012021DC0833021F483E48093120217C01F
:1003C000843021F484E48093120211C0853021F43A
:1003D00085E4809312020BC0863021F486E480937A
:1003E000120205C0873019F487E48093120283E07B
:1003F00080933E0220910C0B30910D0BC901A0E0BF
:10040000B0E00097A105B10579F09C01AD01220F84
:10041000331F441F551F60E070E788E399E30E9493
:10042000C616CA01B90103C060E070E0CB011092AA
:100430000C0B10920D0B0895E0EEF5E086818360C1
:100440008683E0E0FAE081E083838FEF87A386A3D1
:1004500089E0808387E0818381818067818308953B
:10046000E0E2F4E080818860808383858860838710
:10047000E0EEF5E086818683E0E4FAE081E08383C4
:100480008FEF87A386A389E0808384E081838181C5
:100490008067818308950E9430020E941C020895A3
:1004A00081E080934204E0E0FBE01486158612862A
:1004B000138680818160808383E181838481816070
:1004C000848308959C0191E088ED84BF90937C0023
:1004D000E0E4F1E082E0878322873387928389E733
:1004E00080830895880F880F98ED94BF80936800EB
:1004F00008950E944B0287E00E94720260E875E254
:1005000080E090E00E94ED080E9450020E942803C3
:1005100080E19EE00E94620278940895809105092E
:100520008823E4F787E0809304090895CF93DF934D
:1005300083E090E00E940017EC0180910509882378
:10054000E4F7809108098093AF44809105098823DE
:10055000E4F7809108098093AE44809105098823CF
:10056000E4F7809108098093AD44809105098823C0
:10057000E4F7809108098093AC448091AC4488836F
:10058000809105098823E4F7809108098093AB44A2
:100590008091AB448983809105098823E4F7809199
:1005A00008098093AA448091AA448A830E948E02FB
:1005B000CE01DF91CF910895E5E0F9E0908190714F
:1005C0002081229526952695237031E02327422FFE
:1005D000417050E09A01292B232B71F78093080971
:1005E0000895E5E0F9E0808180719081929596957B
:1005F0009695937021E09227492F417050E09A011F
:10060000282BC901892B69F783E080930409089599
:1006100090E0880F991F862B80930709089560E06A
:1006200088E30E9408038CEA0E94DC0283E00E94B7
:10063000DC0280E00E94DC020E94F1022FE789EADE
:1006400093E0215080409040E1F700C00000089501
:10065000E0E0F9E08BE4868381E083838583838116
:100660008260838308950F931F936091AC446F70F1
:10067000862F90E0A0E0B0E0BC0155274427809190
:10068000AB4490E0982F88272091AA44822BA0E0C9
:10069000B0E08A019B01082B192B2A2B3B2BC901A7
:1006A000B8010E94B50D20E030E040E855E30E941B
:1006B000480E20E030E048E453E40E94480E20E079
:1006C00030E048E452E40E94190D6093A644709310
:1006D000A7448093A8449093A9441F910F91089533
:1006E0009F938F937F936F9387E090E49F938F9373
:1006F00088E195E49F938F930E94B5190E9453055A
:100700000E944C058DB79EB708968DBF9EBF089579
:100710000E940F0361E088E30E9408030E94960292
:10072000FC0180818093AC4481818093AB448281C1
:100730008093AA440E9433036093A6447093A74415
:100740008093A8449093A9440E9470032FEF83EDF7
:1007500090E3215080409040E1F700C000000895F0
:10076000CF92DF92EF92FF920E9488030E94750A57
:10077000C090A644D090A744E090A844F090A9442B
:1007800020E030E04CE852E4C701B6010E94430E7D
:1007900018163CF483E190E40E942A090E944C055B
:1007A00019C020E030E04AEA52E4C701B6010E94D5
:1007B000430E18164CF48EE190E40E942A090E9420
:1007C0004C050E94D80906C08AE390E40E942A09D9
:1007D0000E944C05FF90EF90DF90CF90089590918C
:1007E000021091FDFCCF9DE923E194BF20930010FE
:1007F000E82FF0E0FC5E608380E094BF80930010FF
:100800000895CF93DF93C82FD62F672F0E94EF0351
:100810006D2F81E08C0F0E94EF03DF91CF9108953F
:10082000E82FF0E0FC5E80810895CF93DF93D82F0E
:100830000E941004C82F81E08D0F0E9410042C2FFD
:1008400030E0322F2227A901482BCA01DF91CF9136
:100850000895CF93DF9380E00E941504CDECD4E49B
:100860008883998382E00E9415048A839B8384E0B5
:100870000E9415048C839D8386E00E9415048E835C
:100880009F8388E00E941504888799878AE00E94E8
:1008900015048A879B878CE00E9415048C879D87AE
:1008A0008EE00E9415048E879F87DF91CF91089577
:1008B000803210F08F3731F4873021F08D3011F015
:1008C0008A3061F49091B144992321F097E090939C
:1008D000620802C08093620810924845883011F087
:1008E0008F3791F42091B2449091B34429130AC0F8
:1008F00090914845911108C091E0909348458093AC
:100900006208089580936208089580E01CC0292F32
:1009100030E04DE0849FF0011124E35CFB4BE20FDB
:10092000F31F4081F901EF50FB4B2081421304C0BB
:10093000211103C08F5F08959DE09F5F01C090E08B
:100940009D3028F38F5F8830D0F380E008958830A1
:1009500011F08F37B9F49091B3448091B244981755
:1009600009F451C08091B344811104C087E18093A0
:10097000B34405C08091B34481508093B344109236
:10098000B14408959091B144992399F02091B244D3
:100990009091B34430E0291B31092130310549F0F1
:1009A0009091B344973119F49091B24491111092FF
:1009B000B1449091B144911126C0E091B344F0E06C
:1009C000E050FB4B80838091B2442091B34490E08F
:1009D000821B9109019741F08091B344873141F422
:1009E0008091B244811104C081E08093B1440895A4
:1009F0008091B3448F5F8093B3448091B344883136
:100A000010F01092B34408959091B3448091B24491
:100A1000981791F0E091B244F0E0E050FB4B8081F8
:100A20009091B2449F5F9093B2449091B2449831B8
:100A300020F01092B244089580E00895CF93C0E072
:100A400016C00E940405811102C0CC23A1F081329E
:100A500038F0EC2FF0E0EF50FB4B8083CF5F07C006
:100A6000EC2FF0E0EF50FB4B108281E005C0CC3062
:100A700040F381E001C080E0CF9108951092B3442B
:100A80001092B2441092B14408959091640895FF79
:100A9000FCCF8093620808958DE00E9445058AE0AE
:100AA0000E9445050895CF93C0E00AC0EC2FF0E006
:100AB000E85EFA4B8081882329F00E944505CF5FCC
:100AC000C033A0F3CF91089520E030E040E050E043
:100AD00009C0F901EF50FB4B905390834F5F5F4F7C
:100AE0002F5F3F4FF901EF50FB4B90819111F1CFF8
:100AF000CA01089580910640882351F08BE0EDE310
:100B0000F0E4A8E1B5E401900D928A95E1F708952B
:100B10008CE0E8E4F0E4A8E1B5E401900D928A9558
:100B2000E1F708950E944C0583E1E4E5F0E4A8E1D3
:100B3000B5E401900D928A95E1F70E9453050E9459
:100B40003E0581E0809348451092B44408958F504B
:100B50009B4BFC0180818A3080F086E1E7E6F0E47F
:100B6000A8E1B5E401900D928A95E1F70E94530542
:100B70000E944C0584E991E0089590E00895813049
:100B800049F480E090E00E94A7058093FE44909392
:100B9000FF446FC0823011F580E090E00E94A7050D
:100BA0008093FE449093FF4481E090E00E94A7056B
:100BB0008093ED449093EE442091FE443091FF44A5
:100BC000A901440F551F220F331F220F331F220F7D
:100BD000331F240F351F820F931F4BC0833009F042
:100BE00046C080E090E00E94A7058093FE44909369
:100BF000FF4481E090E00E94A7058093ED4490932C
:100C0000EE442091FE443091FF442130310511F42F
:100C1000892BE9F08BE2EDE7F0E4A8E1B5E401907F
:100C20000D928A95E1F70E9453050E944C0582E2DD
:100C3000E8EAF0E4A8E1B5E401900D928A95E1F7C5
:100C40000E9453050E944C0584E991E012C081E2A4
:100C5000EAECF0E4A8E1B5E401900D928A95E1F7A1
:100C60000E9453050E944C0584E690E002C080E09B
:100C700090E085369105DCF08CE0EBEEF0E4A8E145
:100C8000B5E401900D928A95E1F70E9453050E9408
:100C90004C058AE0E7EFF0E4A8E1B5E401900D929D
:100CA0008A95E1F70E9453050E944C0504C0809389
:100CB000EF449093F0448091EF449091F044089574
:100CC0000F931F93CF93DF93C091F144D0E0E0974F
:100CD0000E941E05882309F463C00E9464058C01EC
:100CE0000197C1F48091F14481110DC087E2E1E0E8
:100CF000F1E4A8E1B5E401900D928A95E1F70E9434
:100D000053050E944C0581E00E94BF058093EF448B
:100D10009093F04402301105C9F48091F14481119F
:100D20000EC08CE1E8E2F1E4A8E1B5E401900D9297
:100D30008A95E1F70E9453050E944C0507C082E0A6
:100D40000E94BF058093EF449093F0440330110557
:100D500039F483E00E94BF058093EF449093F04400
:100D6000DF93CF9384E491E49F938F9388E195E49C
:100D70009F938F930E94B5190E9453058EE0EBE478
:100D8000F1E4A8E1B5E401900D928A95E1F70E94A3
:100D900053050F900F900F900F900F900F900BC076
:100DA00083E1E9E5F1E4A8E1B5E401900D928A95CB
:100DB000E1F70E9453058091EF449091F044DF9158
:100DC000CF911F910F910895CF93DF93C0E0D0E0B2
:100DD00009C02AE030E040E050E00E94C616CA0197
:100DE000B9012196611571058105910591F78C2F47
:100DF000DF91CF9108950E944C0585E1ECE6F1E486
:100E0000A8E1B5E401900D928A95E1F70E9453059F
:100E100086E1E1E8F1E4A8E1B5E401900D928A955C
:100E2000E1F70E9453050E944C050E944C0508956D
:100E3000CF93C82F0E94C8012FEF83EF91E021507C
:100E400080409040E1F700C000008C2F0E94C80154
:100E5000CB01CF910895DF92EF92FF920F931F93F2
:100E6000CF93DF93D82E0E941807BC01990F880BEF
:100E7000990B0E94E406811106C0E82EF12C87012F
:100E80000F5F1F4F08C0082F10E0780183E0E81AB9
:100E9000F108015011090E944C05C0E0D0E009C0E2
:100EA00080E290E080931845909319450E94530585
:100EB0002196EC16FD06A4F780E1E7E9F1E4A8E14C
:100EC000B5E401900D928A95E1F70E945305C0E0C8
:100ED000D0E009C080E290E08093184590931945D6
:100EE0000E94530521960C171D07A4F78CE790E08C
:100EF00080931845909319450E9453050E944C0514
:100F0000C0E0D0E009C080E290E080931845909363
:100F100019450E9453052196EC16FD06A4F7C8E179
:100F2000D5E48FE0E7EAF1E4DE0101900D928A95C5
:100F3000E1F70E945305ED2CF12C1F92DF9288E41B
:100F400091E49F938F93DF93CF930E94B5190E94F2
:100F500053050F900F900F900F900F900F90C0E0DF
:100F6000D0E009C080E290E0809318459093194545
:100F70000E94530521960C171D07A4F78CE790E0FB
:100F800080931845909319450E9453050E944C0583
:100F900000E010E042C0C8E1D5E489E0E6EBF1E40E
:100FA000DE0101900D928A95E1F70E945305FF92B0
:100FB000EF9288E491E49F938F93DF93CF930E9405
:100FC000B5190E94530589E0EFEBF1E4DE010190D1
:100FD0000D928A95E1F70E9453058D2D0E94C8015C
:100FE0009F938F937F936F9388EC91E49F938F935C
:100FF000DF93CF930E94B5190E9453058CE790E0D0
:10100000888399830E9453050E944C050F5F1F4FF0
:101010008DB79EB70E968DBF9EBF0B3011050CF499
:10102000BACFDF91CF911F910F91FF90EF90DF909A
:1010300008955F926F927F928F929F92AF92BF922C
:10104000CF92DF92EF92FF920F931F93CF93DF9394
:10105000682E562EC0E0D0E00CC086E1ECECF1E446
:10106000A8E1B5E401900D928A95E1F70E9453053D
:101070002196C430D1058CF30E944C05660C660C99
:10108000712CE30129C008E115E489E0E6EBF1E405
:10109000D80101900D928A95E1F70E945305DF93E4
:1010A000CF9388E491E49F938F931F930F930E94B3
:1010B000B5190E9453058DE0E2EEF1E4D8010190EC
:1010C0000D928A95E1F70E94530521960F900F909B
:1010D0000F900F900F900F90730183E0E80EF11CBA
:1010E000EC16FD0684F60E944C05C12CD12C53C091
:1010F000C8E1D5E489E0E6EBF1E4DE0101900D9270
:101100008A95E1F70E9453051F930F9388E491E4B9
:101110009F938F93DF93CF930E94B5190E9453053D
:10112000802F0E9418074C01990FAA08BB0889E07C
:10113000EFEBF1E4DE0101900D928A95E1F70E9458
:101140005305BF92AF929F928F9288EC91E49F9348
:101150008F93DF93CF930E94B5190E94530580E2CD
:101160009CE78883998380E290E08A839B830E9436
:1011700053050F5F1F4F8DB79EB70E968DBF9EBF55
:1011800001C08301E016F1060CF0B2CF0E944C05BD
:101190009FEFC91AD90A852D90E0C816D9068CF39D
:1011A0000E944C05DF91CF911F910F91FF90EF901E
:1011B000DF90CF90BF90AF909F908F907F906F9077
:1011C0005F9008950E94FB0665E080E00E94190888
:1011D00065E081E00E9419080895E0E6F8E08AE001
:1011E0009AE1808791871092E205A0E2B4E08C91A9
:1011F00081608C9380E8858380EC868383E087839D
:1012000012860895CF93C0916008CA3051F0CD3056
:1012100061F0C1110DC08091064080958093064019
:101220000AC08091B0448D3031F081E08093B444A5
:101230008C2F0E94A70480910640882339F080916A
:10124000640885FF03C08C2F0E945804C093B044EB
:10125000CF910895BC0188E195E40E9429190E946C
:1012600053050895CF93DF93CDEBD4E46881798162
:1012700080E00E9401046A817B8182E00E94010477
:101280006C817D8184E00E9401046E817F8186E013
:101290000E9401046885798588E00E9401046A85BE
:1012A0007B858AE00E9401046C857D858CE00E942C
:1012B00001046E857F858EE00E9401048FEE91E42B
:1012C0000E942A09DF91CF91089560E070E080E0EC
:1012D0000E94010460E070E082E00E94010460E08E
:1012E00070E084E00E94010460E070E086E00E940B
:1012F000010460E070E088E00E94010460E070E0BA
:101300008AE00E94010460E070E08CE00E94010429
:1013100060E070E08EE00E9401048BEF91E40E9497
:101320002A0908950E941E05811129C081E192E4D5
:101330000E942A090E944C0585E292E40E942A0933
:101340000E944C0582E392E40E942A090E944C0507
:1013500085E492E40E942A090E944C0582E792E407
:101360000E942A090E944C0589E892E40E942A09F9
:101370000E944C0589E992E40E942A0908958EEAA8
:1013800092E40E942A090895CF93DF93C0E0D0E051
:1013900005C060E08C2F0E9461012196C830D10504
:1013A000C4F381EC92E40E942A09DF91CF91089561
:1013B000CF93DF93C0E0D0E005C064E68C2F0E949D
:1013C00061012196C830D105C4F383EE92E40E94F6
:1013D0002A09DF91CF9108957F936F9328E431E438
:1013E0003F932F939F938F930E94B5190E945305AB
:1013F0000F900F900F900F900F900F900895CF9235
:10140000DF92EF92FF920F931F93CF93DF93C0E091
:10141000D0E05EC08C2F0E941807FC01CE01880F1F
:10142000991FDC01A354BB4BED93FC93DC01A35348
:10143000BB4B4D915C914115510509F448C083E1C6
:10144000849F9001859F300D1124ADECBCEC0E946F
:10145000F1168C01129502950F7001271F7001275C
:101460009F010E94F116929582958F7089279F7037
:101470008927080F191FFE01EE0FFF1FE354FB4BD6
:1014800000831183BA0180E090E00E94B50D24EA48
:1014900030E74DE75FE30E94480E6B017C01B80125
:1014A00080E090E00E94B50D9B01AC01C701B60140
:1014B0000E94430E18165CF483E093E40E942A090C
:1014C000BE0188E195E40E94EC090E944C0521963A
:1014D000C830D1050CF49ECFDF91CF911F910F91B1
:1014E000FF90EF90DF90CF9008950E94C4090E9472
:1014F0004C050E9429040E94FF090E9432090895A8
:10150000CF93DF930E9429040E944C058BE193E462
:101510000E942A090E944C050E944C05C0E0D0E0C0
:101520001BC087E293E40E942A09BE0188E195E48A
:101530000E94EC0984E690E40E942A09FE01EE0F65
:10154000FF1FE353FB4B6081718188E195E40E94AA
:10155000EC090E944C052196C830D10514F3DF91A7
:10156000CF91089560E473E481EF94E40E94201920
:10157000892B79F48FEF8093064088E0EBE3F3E466
:10158000A8E1B5E401900D928A95E1F70E94530518
:10159000089568E473E481EF94E40E942019892B94
:1015A00071F41092064089E0E3E4F3E4A8E1B5E4C5
:1015B00001900D928A95E1F70E94530508958CE100
:1015C000ECE4F3E4A8E1B5E401900D928A95E1F72B
:1015D0000E94530561EF74E488E195E40E942919A3
:1015E0000E9453050E944C0508958091B4448823BD
:1015F00009F4C6C10E944C050E941E05882309F407
:10160000BDC10E94850490E0FC013197E830F105EE
:1016100008F0B0C1E658FF4F0C94E8160E941E0572
:1016200081110CC08EE1E8E6F3E4A8E1B5E4019095
:101630000D928A95E1F70E945305A0C160E473E41E
:1016400081EF94E40E942019892B19F40E94C409A7
:1016500095C168E473E481EF94E40E942019892B1A
:1016600019F40E94D8098AC186E893E40E942A09E5
:101670000E944C0583C10E941E05811105C00E9475
:101680007A050E9453057AC10E94B20A77C10E946E
:101690001E05811105C088EA93E40E942A096EC1E3
:1016A00062E471E481EF94E40E942019892B21F413
:1016B00080E00E942B0762C167EC73E481EF94E441
:1016C0000E942019892B21F481E00E942B0756C12A
:1016D00069EC73E481EF94E40E942019892B21F4D2
:1016E00082E00E942B074AC16BEC73E481EF94E423
:1016F0000E942019892B21F483E00E942B073EC110
:101700006DEC73E481EF94E40E942019892B21F49D
:1017100084E00E942B0732C16FEC73E481EF94E404
:101720000E942019892B21F485E00E942B0726C1F5
:1017300061ED73E481EF94E40E942019892B21F478
:1017400086E00E942B071AC163ED73E481EF94E4F5
:101750000E942019892B21F487E00E942B070EC1DB
:1017600065ED73E481EF94E40E942019892B19F44C
:101770000E94E20803C189ED93E40E942A090E94B5
:101780004C05FCC00E941E05811105C084EF93E446
:101790000E942A09F3C062E471E481EF94E40E949C
:1017A0002019892BB9F40E9460068093EB44909332
:1017B000EC44682F80E00E9461016091EB447091DD
:1017C000EC4488E195E40E94EC098091EB4480931D
:1017D000B544D4C067EC73E481EF94E40E9420190F
:1017E000892B99F40E9460068093E9449093EA441F
:1017F000682F81E00E9461016091E9447091EA44A0
:1018000088E195E40E94EC09B9C069EC73E481EFCA
:1018100094E40E942019892B99F40E946006809319
:10182000E7449093E844682F82E00E946101609150
:10183000E7447091E84488E195E40E94EC099EC079
:101840006BEC73E481EF94E40E942019892B99F4E6
:101850000E9460068093E5449093E644682F83E0FD
:101860000E9461016091E5447091E64488E195E44D
:101870000E94EC0983C06DEC73E481EF94E40E9454
:101880002019892B99F40E9460068093E344909379
:10189000E444682F84E00E9461016091E344709108
:1018A000E44488E195E40E94EC0968C06FEC73E4BD
:1018B00081EF94E40E942019892B99F40E9460061C
:1018C0008093E1449093E244682F85E00E94610197
:1018D0006091E1447091E24488E195E40E94EC0952
:1018E0004DC061ED73E481EF94E40E942019892BCF
:1018F00099F40E9460068093DF449093E044682F3F
:1019000086E00E9461016091DF447091E04488E1CB
:1019100095E40E94EC0932C063ED73E481EF94E436
:101920000E942019892B99F40E9460068093DD445F
:101930009093DE44682F87E00E9461016091DD444E
:101940007091DE4488E195E40E94EC0917C082E1C1
:1019500094E40E942A090E944C0510C00E9492093A
:101960000DC00E94750A0AC00E94650907C00E9446
:10197000800A04C08CE294E40E942A090E94920525
:1019800008950E9479020E94F50AFDCF1F920F92DE
:101990000FB60F9211240BB60F922F933F934F93D4
:1019A0005F936F937F938F939F93AF93BF93EF93C7
:1019B000FF9381E0809343010E94B003FF91EF9178
:1019C000BF91AF919F918F917F916F915F914F9157
:1019D0003F912F910F900BBE0F900FBE0F901F9055
:1019E00018951F920F920FB60F9211240BB60F92FB
:1019F0002F933F934F935F936F937F938F939F9317
:101A0000AF93BF93EF93FF930E940209FF91EF9171
:101A1000BF91AF919F918F917F916F915F914F9106
:101A20003F912F910F900BBE0F900FBE0F901F9004
:101A300018955058BB27AA270E94310D0C94090E07
:101A40000E94FB0D38F00E94020E20F039F49F3FF7
:101A500019F426F40C94F80D0EF4E095E7FB0C94C1
:101A6000F20DE92F0E941A0E58F3BA176207730796
:101A70008407950720F079F4A6F50C943C0E0EF43B
:101A8000E0950B2EBA2FA02D0B01B90190010C018E
:101A9000CA01A0011124FF27591B99F0593F50F4A6
:101AA000503E68F11A16F040A22F232F342F4427FE
:101AB000585FF3CF469537952795A795F0405395F6
:101AC000C9F77EF41F16BA0B620B730B840BBAF0C6
:101AD0009150A1F0FF0FBB1F661F771F881FC2F731
:101AE0000EC0BA0F621F731F841F48F48795779545
:101AF0006795B795F7959E3F08F0B0CF9395880FFF
:101B000008F09927EE0F9795879508950E94220E69
:101B100088F09F5798F0B92F9927B751B0F0E1F0AE
:101B2000660F771F881F991F1AF0BA95C9F714C05E
:101B3000B13091F00E943C0EB1E008950C943C0E3F
:101B4000672F782F8827B85F39F0B93FCCF3869597
:101B500077956795B395D9F73EF4909580957095F4
:101B600061957F4F8F4F9F4F0895E89409C097FB71
:101B70003EF490958095709561957F4F8F4F9F4F64
:101B80009923A9F0F92F96E9BB279395F6958795A8
:101B900077956795B795F111F8CFFAF4BB0F11F46B
:101BA00060FF1BC06F5F7F4F8F4F9F4F16C0882312
:101BB00011F096E911C0772321F09EE8872F762F48
:101BC00005C0662371F096E8862F70E060E02AF089
:101BD0009A95660F771F881FDAF7880F9695879575
:101BE00097F9089597F99F6780E870E060E008959D
:101BF0009FEF80EC089500240A9416161706180625
:101C00000906089500240A94121613061406050600
:101C10000895092E0394000C11F4882352F0BB0F91
:101C200040F4BF2B11F460FF04C06F5F7F4F8F4FF4
:101C30009F4F089557FD9058440F551F59F05F3F2F
:101C400071F04795880F97FB991F61F09F3F79F0DE
:101C500087950895121613061406551FF2CF469560
:101C6000F1DF08C0161617061806991FF1CF8695E2
:101C70007105610508940895E894BB2766277727C6
:101C8000CB0197F908950E94B50E08F48FEF0895DF
:101C90000E945B0E0C94090E0E94FB0D38F00E940E
:101CA000020E20F0952311F00C94F20D0C94F80D17
:101CB00011240C943D0E0E941A0E70F3959FC1F3EF
:101CC000950F50E0551F629FF001729FBB27F00DEA
:101CD000B11D639FAA27F00DB11DAA1F649F66273F
:101CE000B00DA11D661F829F2227B00DA11D621F8E
:101CF000739FB00DA11D621F839FA00D611D221F48
:101D0000749F3327A00D611D231F849F600D211D2B
:101D1000822F762F6A2F11249F5750409AF0F1F0AE
:101D200088234AF0EE0FFF1FBB1F661F771F881F17
:101D300091505040A9F79E3F510580F00C94F20D50
:101D40000C943D0E5F3FE4F3983ED4F3869577956F
:101D50006795B795F795E7959F5FC1F7FE2B880FBD
:101D6000911D9695879597F90895990F0008550F3D
:101D7000AA0BE0E8FEEF16161706E807F907C0F011
:101D800012161306E407F50798F0621B730B840B19
:101D9000950B39F40A2661F0232B242B252B21F4F3
:101DA00008950A2609F4A140A6958FEF811D811D93
:101DB000089520FD09C0FC0123FD05C022FF02C0DB
:101DC0007383628351834083089544FD17C046FDA9
:101DD00017C0AB01BC01DA01FB01AA0FBB1FEE1F4C
:101DE000FF1F1094D1F74A0F5B1F6E1F7F1FCB019F
:101DF000BA01660F771F881F991F09C033E001C021
:101E000034E0660F771F881F991F3150D1F7620F9A
:101E1000711D811D911D08950F931F93CF93DF9323
:101E20008C01C8010E943B19EC0197FD08C00E947B
:101E3000F918892BB1F7B801CE010E94DE19CE0145
:101E4000DF91CF911F910F9108958F929F92AF9242
:101E5000BF92CF92DF92EF92FF920F931F93CF9397
:101E6000DF937C018B016A01D22F0E943B199C01F8
:101E700033272B32310521F02D32310559F4D0684A
:101E80000150110911F480E06BC0C7010E943B1999
:101E900097FDF9CFCD2FCD7F2D2F207319F58033EE
:101EA00009F5580181E0A81AB10809F445C0C70135
:101EB0000E943B1997FD40C09C012F7D3327283598
:101EC000310551F4C26402501109B1F1C7010E94F9
:101ED0003B1997FF07C030C0D6FF02C0C26001C0E7
:101EE000C2618501812C912C540120ED280F2830EE
:101EF00080F0C4FF04C0B7010E94DE191AC02A3066
:101F000040F0C6FFF8CF2F7D3FEE320F363098F706
:101F100027504C2FC501B4010E94E50E4B015C0116
:101F2000C2600150110959F0C7010E943B1997FF87
:101F3000DCCFC1FD04C0A7CF812C912C5401C7FF79
:101F400008C0B094A09490948094811C911CA11C12
:101F5000B11C2C2FB501A401C6010E94D90E81E04D
:101F6000DF91CF911F910F91FF90EF90DF90CF9075
:101F7000BF90AF909F908F9008954F925F926F9215
:101F80007F928F929F92AF92BF92CF92DF92EF9209
:101F9000FF920F931F93CF93DF93CDB7DEB7A09738
:101FA000CDBFDEBF5C014B017A018E010F5F1F4F79
:101FB000680180E2F80111928A95E9F7F5015380F2
:101FC00040E050E0612C90E0712CA1E0B0E0F9011C
:101FD00053FC859153FE81918F01482E9F01811101
:101FE00003C080E090E096C08E3519F4411551058C
:101FF00051F1672D70E0641775073CF48D3561F180
:102000008D3219F4992311F103C0992309F46DC09D
:10201000842D869586958695F601E80FF11D842D11
:1020200087708D0102C0000F111F8A95E2F7C80169
:102030009081892B8083641459F0461410F44394E2
:10204000E7CF4A94E5CF7724739403C091E001C0B1
:1020500090E04F5F5F4FBBCF992319F08E81806274
:102060008E83711003C07724739419C0F6019E010A
:102070002F5D3F4F8081809581932E173F07D1F7C9
:10208000F2CFE114F10431F0F7018083B7016F5F03
:102090007F4F7B0171E0871A9108712CF9F0C5011F
:1020A0000E943B1997FD18C0FC01FF2723E0F5951E
:1020B000E7952A95E1F7EC0DFD1D208130E0AC019C
:1020C0004770552702C0359527954A95E2F720FDC0
:1020D000D8CFB5010E94DE19711083CFE114F1044D
:1020E00011F0F7011082C80115C0682F669566953A
:1020F0006695F601E60FF11D682F67708D0102C02D
:10210000000F111F6A95E2F7B8017081672B608399
:10211000682E9FCFA096CDBFDEBFDF91CF911F91DC
:102120000F91FF90EF90DF90CF90BF90AF909F9076
:102130008F907F906F905F904F9008952F923F9275
:102140004F925F926F927F929F92AF92BF92CF9287
:10215000DF92EF92FF920F931F93CF93DF936C0167
:102160008B011A010E943B19EC0199278B329105D2
:1021700029F08D9781F430E8932E01C0912C015005
:10218000110911F480E00CC1C6010E943B19EC0159
:1021900097FF02C0F7CF912CCE010E940219893619
:1021A000910531F08E36910599F5C8E1D2E002C073
:1021B000CBE1D2E02196FE013197B490BB20C9F06B
:1021C0000150110991F0C6010E943B197C0197FD55
:1021D0000CC00E9402199927EB2DF0E08E179F0783
:1021E00049F3B601C7010E94DE19CE51D24051F623
:1021F00003C0CB51D24029F080E090E0A0E8BFE7D7
:1022000004C080E090E0A0ECBFE7BC01CD01B8C005
:10221000412C512C3201E12CF12C2C2F20532A304F
:1022200010F5E92DE260BE2E892D887092FE06C061
:10223000811120C0FFEFEF1AFF0A1CC0882319F09C
:1022400081E0E81AF10840E2C301B2010E94E50E04
:102250002B013C01683979498949994158F0F92D98
:10226000F660BF2E07C02E3F89F493FC0FC0292DC6
:102270002860B22E0150110941F0C6010E943B199D
:10228000EC019B2C97FFC9CF01C09B2C91FE7ACF0C
:10229000CE018F7D99278534910509F042C0580100
:1022A00081E0A81AB10809F46DCFC6010E943B195C
:1022B000EC0197FD67CF99278B32910529F08D9717
:1022C00069F4E92DE0619E2E5801F2E0AF1AB108E1
:1022D00009F458CFC6010E943B19EC01CE01C0970A
:1022E0000A9708F04FCF8501A12CB12CB501BB0C8A
:1022F000880B990B2C2F205340E20E94E50E5B01C6
:102300000150110939F0C6010E943B19EC01C09738
:102310000A9760F394FE03C0B194A194B108EA0C4B
:10232000FB1C012B31F0D7FD04C0B601CE010E9489
:10233000DE19C301B2010E94B50DF7FE06C0F1948B
:10234000E194F108C7E3D2E002C0CFE4D2E06E012D
:1023500028E1C21AD10800E210E0E016F10650F0C0
:10236000FE0125913591459154910E94480EE01A45
:10237000F10AF3CF249716950795CC16DD0669F779
:1023800097FE05C0DC01CB01B058BC01CD01211482
:10239000310429F0F101608371838283938381E0AA
:1023A000DF91CF911F910F91FF90EF90DF90CF9031
:1023B000BF90AF909F907F906F905F904F903F90B5
:1023C0002F9008956F927F928F929F92AF92BF92BB
:1023D000CF92DF92EF92FF920F931F93CF93DF93F1
:1023E0005C01EB014A01FC0116821782612CF501A8
:1023F0000381FE0103FD859103FF8191182FEF01F9
:10240000882309F40FC190E00E94F918892B21F06C
:10241000C5010E940C0FEBCF153241F4FE0103FD04
:10242000159103FF1191EF01153281F4C5010E944E
:102430003B1997FDF5C0412F50E09C01332724172D
:102440003507A9F2B5010E94DE19ECC01A3241F439
:1024500003FD159103FF1191EF017724739401C0DF
:10246000712CE12CF12C20ED210F2A3088F4F72D6E
:10247000F2607F2EB70180E090E040E20E94E50E1E
:102480007B01FE0103FD159103FF1191EF01EBCFDD
:1024900071FE04C0E114F10421F4C4C0EE24EA94F6
:1024A000FE2C183619F01C3661F014C0FE0103FD35
:1024B000159103FF1191EF01183661F4872D8860A3
:1024C000782E972D9460792EFE0103FD159103FF60
:1024D0001191EF01112309F4A5C0612F70E086E08E
:1024E00092E00E940A19892B09F49CC070FC07C075
:1024F000F401C080D180C40102964C0102C0C12CFD
:10250000D12C1E3651F4F5014681578160E070E010
:10251000272DC6010E94D90E6ACF1336B9F471FC7B
:1025200003C0EE24E394F12CC5010E943B1997FDF2
:1025300077C0C114D10429F0F6018083C601019649
:102540006C0191E0E91AF10879F766C01B3559F47E
:102550009E01A601B701C5010E94BD0FEC01892BA8
:1025600009F05AC054C0C5010E940C0F97FD58C015
:102570001F36E1F140F41436A9F11936D1F11835BE
:1025800009F03EC02BC01337A9F018F4103731F111
:1025900037C0153739F1183709F132C0C114D104E9
:1025A00029F0F6010083C60101966C0191E0E91A59
:1025B000F10871F0C5010E943B198C0197FD08C01C
:1025C0000E94F918892B51F3B501C8010E94DE1948
:1025D000C114D10409F1F60110821EC0F72DF06478
:1025E0007F2E07C0872D8062782E03C0972D9061C3
:1025F000792E272DA601B701C5010E94250F05C020
:10260000A601B701C5010E949E10811105C0F50108
:102610008381807329F406C070FCE9CE6394E7CE11
:10262000662019F0862D90E002C08FEF9FEFDF91BA
:10263000CF911F910F91FF90EF90DF90CF90BF90BF
:10264000AF909F908F907F906F9008952F923F92C0
:102650004F925F926F927F928F929F92AF92BF92B2
:10266000CF92DF92EF92FF920F931F93CF93DF935E
:10267000CDB7DEB76097CDBFDEBF7C011B016A011D
:10268000FC0116821782838181FF44C39E012F5F64
:102690003F4F3901F7019381F10193FD859193FF3C
:1026A00081911F01882309F431C3853239F493FDE8
:1026B000859193FF81911F01853239F4B70190E034
:1026C0000E94791956016501E5CF10E0512C912C3B
:1026D000FFE1F915D8F08B3279F038F4803279F0D7
:1026E0008332A1F4F92DF0612EC08D3261F0803378
:1026F00069F4292D21602DC0392D3260932E892D4A
:102700008460982E2AC0E92DE86015C097FC2DC082
:1027100020ED280F2A3088F496FE06C03AE0139F79
:10272000200D1124122F19C08AE0589E200D11246B
:10273000522EE92DE0629E2E10C08E3231F496FCAE
:10274000E5C2F92DF0649F2E08C08C3621F4292DA6
:102750002068922E02C0883641F4F10193FD8591E4
:1027600093FF81911F018111B3CF9BEB980F9330A1
:1027700020F4992D9061805E07C09BE9980F9330FB
:1027800008F066C1992D9F7E96FF16E09F73992EE3
:10279000853619F49064992E08C0863621F4392FB5
:1027A0003068932E02C01111115097FE07C01C33E0
:1027B00050F444244394410E27E00BC0183038F005
:1027C00027E017E005C027E09CE3492E02C0212F37
:1027D000412C560184E0A80EB11CF6016081718184
:1027E00082819381042DA3010E9421186C01F9813B
:1027F000FC87F0FF02C0F3FF06C091FC06C092FE0A
:1028000006C000E205C00DE203C00BE201C000E01B
:102810008C858C7019F001115AC29BC297FE10C0B2
:102820004C0CFC85F4FF04C08A81813309F44A947E
:10283000141474F528E0241578F588E0482E2CC08F
:1028400096FC2AC0812F90E08C159D059CF03CEFF2
:10285000C3163FEFD30674F0892D8068982E0AC006
:10286000E2E0F0E0EC0FFD1FE10FF11D808180330D
:1028700019F411501111F4CF97FE0EC04424439463
:10288000410E812F90E0C816D9062CF41C1904C003
:102890004424439401C010E097FE06C01C141D049C
:1028A00034F4C601019605C085E090E002C081E0E5
:1028B00090E001110196112331F0212F30E02F5FBC
:1028C0003F4F820F931F252D30E08217930714F49A
:1028D000581A01C0512C892D897049F4552039F0BE
:1028E000B70180E290E00E9479195A94F7CF002353
:1028F00029F0B701802F90E00E94791993FC09C05C
:10290000552039F0B70180E390E00E9479195A947C
:10291000F7CF97FE4CC04601D7FE02C0812C912C08
:10292000C60188199909F301E80FF91FED87FE87A1
:102930009601241931092F87388B012F10E011954A
:10294000019511093FEF8316930629F4B7018EE232
:1029500090E00E947919C814D9044CF08F859889A9
:102960008815990524F4ED85FE85818101C080E3F9
:10297000F1E08F1A91082D853E852F5F3F4F2D87FF
:102980003E87801691062CF0B70190E00E947919DD
:10299000D9CFC814D90441F49A81963320F49533E1
:1029A00019F43C8534FF81E3B70190E04EC08A8181
:1029B000813319F09C859F7E9C87B70190E00E942F
:1029C0007919111105C094FC18C085E690E017C074
:1029D000B7018EE290E00E9479191E5F82E001E06B
:1029E000080FF301E80FF11D8081B70190E00E940C
:1029F0007919802F0113F3CFE6CF85E490E0B7017A
:102A00000E947919D7FC06C0C114D10441F4EC85A9
:102A1000E4FF05C0D194C194D1088DE201C08BE2DE
:102A2000B70190E00E94791980E32AE0C216D10430
:102A30002CF08F5FFAE0CF1AD108F7CFB70190E002
:102A40000E947919B701C601C0960E94791954C134
:102A5000833631F0833779F0833509F056C020C0D2
:102A6000560132E0A30EB11CF6018081898301E09A
:102A700010E0630112C05601F2E0AF0EB11CF60186
:102A8000C080D18096FE03C0612F70E002C06FEF5E
:102A90007FEFC6010E9430198C01F92DFF7714C019
:102AA000560122E0A20EB11CF601C080D18096FE34
:102AB00003C0612F70E002C06FEF7FEFC6010E947C
:102AC00015198C01F92DF0689F2EF3FD1AC0852D84
:102AD00090E008171907A8F4B70180E290E00E947F
:102AE00079195A94F4CFF60197FC859197FE81915C
:102AF0006F01B70190E00E94791951105A9401506A
:102B000011090115110579F7F7C0843611F08936DE
:102B100061F5560197FE09C024E0A20EB11CF60132
:102B200060817181828193810AC0F2E0AF0EB11C95
:102B3000F60160817181072E000C880B990BF92D2D
:102B4000FF769F2E97FF09C09095809570956195AF
:102B50007F4F8F4F9F4FF0689F2E2AE030E0A301F8
:102B60000E94F719C82EC6183FC0092D853721F4D9
:102B70000F7E2AE030E01DC0097F8F3691F018F4F7
:102B8000883559F0C3C0803719F0883711F0BEC0BE
:102B9000006104FF09C0046007C094FE08C006601D
:102BA00006C028E030E005C020E130E002C020E1AE
:102BB00032E0560107FF09C084E0A80EB11CF601FF
:102BC000608171818281938108C0F2E0AF0EB11CF7
:102BD000F6016081718180E090E0A3010E94F71905
:102BE000C82EC6180F77902E96FE0BC0092D0E7FAB
:102BF000C11650F494FE0AC092FC08C0092D0E7E46
:102C000005C0DC2C092D03C0DC2C01C0D12E04FF33
:102C10000DC0FE01EC0DF11D8081803311F4097EA1
:102C200009C002FF06C0D394D39404C0802F8678D5
:102C300009F0D39403FD11C000FF06C01C2DD5146C
:102C400080F4150D1D190DC0D51458F4B70180E29C
:102C500090E00E947919D394F7CFD51410F45D1841
:102C600001C0512C04FF10C0B70180E390E00E9426
:102C7000791902FF17C001FD03C088E790E002C088
:102C800088E590E0B7010CC0802F867859F001FFED
:102C900002C08BE201C080E207FD8DE2B70190E047
:102CA0000E947919C11638F4B70180E390E00E94C0
:102CB00079191150F7CFCA94F301EC0DF11D808101
:102CC000B70190E00E947919C110F5CF15C0F4E06A
:102CD000F51560F584E0581A93FE1FC0011127C056
:102CE0002C8523FF2AC004E011E0392D3071932E8A
:102CF000F8018491811124C0552009F4E4CCB70176
:102D000080E290E00E9479195A94F6CFF70186810B
:102D1000978126C08FEF9FEF23C0B70180E290E03C
:102D20000E9479195A945110F8CFD8CF512CB7017D
:102D3000802F90E00E947919D3CF08E011E0D5CF21
:102D400091108052B70190E00E9479190F5F1F4FD8
:102D5000CFCF23E0251510F483E0BDCF512CC0CF99
:102D60006096CDBFDEBFDF91CF911F910F91FF9095
:102D7000EF90DF90CF90BF90AF909F908F907F901B
:102D80006F905F904F903F902F900895A1E21A2E80
:102D9000AA1BBB1BFD010DC0AA1FBB1FEE1FFF1FFF
:102DA000A217B307E407F50720F0A21BB30BE40B4F
:102DB000F50B661F771F881F991F1A9469F7609596
:102DC0007095809590959B01AC01BD01CF01089550
:102DD000EE0FFF1F0024001C0BBE0790F691E02DA4
:102DE0000994A29FB001B39FC001A39F700D811DE4
:102DF0001124911DB29F700D811D1124911D089504
:102E00000F931F93CF93DF938230910510F482E0EC
:102E100090E0E0914B45F0914C4520E030E0A0E09F
:102E2000B0E0309719F14081518102811381481738
:102E30005907C8F08417950769F4109731F0129676
:102E40000C93129713961C9327C000934B45109335
:102E50004C4522C02115310519F04217530718F4CB
:102E60009A01BD01EF01DF01F801DBCF211531052A
:102E7000F9F0281B390B2430310580F48A819B81BD
:102E80006115710521F0FB018283938304C0809357
:102E90004B4590934C45FE01329644C0FE01E20F33
:102EA000F31F8193919322503109288339833AC0CB
:102EB0002091494530914A45232B41F4209102400D
:102EC000309103402093494530934A45209100407A
:102ED000309101402115310541F42DB73EB74091A5
:102EE000044050910540241B350BE0914945F09179
:102EF0004A45E217F307A0F42E1B3F0B28173907AA
:102F000078F0AC014E5F5F4F2417350748F04E0F45
:102F10005F1F4093494550934A458193919302C066
:102F2000E0E0F0E0CF01DF91CF911F910F91089584
:102F3000CF93DF93009709F481C0FC01329712828E
:102F40001382A0914B45B0914C45109781F420819C
:102F50003181820F931F2091494530914A452817AE
:102F6000390751F5E0934945F0934A4567C0ED01B3
:102F700020E030E0CE17DF0740F44A815B819E01FC
:102F800041155105F1F0EA01F5CFC283D3834081A9
:102F90005181840F951FC817D90759F488819981E9
:102FA000840F951F0296808391838A819B818283FF
:102FB00093832115310529F4E0934B45F0934C455B
:102FC0003DC0E901EA83FB8349915991C40FD51FA4
:102FD000EC17FD0761F480819181840F951F0296A3
:102FE000E90188839983828193818A839B83E0E0CE
:102FF000F0E012968D919C911397009719F0FD01C6
:10300000DC01F7CF8D919C9111979D012E5F3F4F71
:10301000820F931F2091494530914A45281739075F
:1030200069F4309729F410924B4510924C4502C038
:1030300012821382A0934945B0934A45DF91CF9104
:103040000895283008F027E03327DA01990F311D61
:1030500087FD916000966105710539F432602E5F3D
:103060003D9330E32A95E1F708959F3F30F0803893
:103070007105610509F03C5F3C5F3D93913008F0BC
:103080008068911DDF93CF931F930F93FF92EF9270
:10309000192F987F9695E92F96959695E90FFF271A
:1030A000EA59FE4F99273327EE24FF24A701E701B1
:1030B00005900894079428F4360FE71EF81E491F60
:1030C000511D660F771F881F991F0694A1F7059061
:1030D000079428F4E70EF81E491F561FC11D770FED
:1030E000881F991F661F0694A1F70590079428F47E
:1030F000F80E491F561FC71FD11D880F991F661F45
:10310000771F0694A1F70590079420F4490F561FE6
:10311000C71FD81F990F661F771F881F0694A9F72E
:1031200084911095177041F0D695C795579547959E
:10313000F794E7941A95C1F7ECE0F1E068941590E4
:10314000159135916591959105907FE27395E11800
:10315000F10A430B560BC90BD009C0F7E10CF11E65
:10316000431F561FC91FD01D7EF4703311F48A957A
:10317000E6CFE894015030F0080F0AF40027021758
:1031800008F4202F2395022F7A3328F079E37D93DA
:103190002A95E9F710C07D932A9589F606949795AC
:1031A0006795379517951794E118F10A430B560B5D
:1031B000C90BD00998F023957E9173957A3308F066
:1031C00070E37C932013B8F77E9170617D9330F0AB
:1031D000839571E37D9370E32A95E1F71124EF90D5
:1031E000FF900F911F91CF91DF91992787FD9095C7
:1031F000089591110C94551A803219F08950855018
:10320000C8F708959111089581548A5108F4805E99
:10321000855A0895FC010590061621F00020D9F783
:10322000C00108953197CF010895FC0105906150C8
:1032300070400110D8F7809590958E0F9F1F0895CC
:10324000FB01DC018D91019080190110D9F3990BDC
:103250000895FB01DC0101900D920020E1F7089533
:10326000FC016150704001900110D8F78095909555
:103270008E0F9F1F0895CF93DF93EC012B8120FFCA
:1032800033C026FF0AC02F7B2B838E819F8101963E
:103290008E839F838A8190E029C022FF0FC0E8813E
:1032A000F9818081082E000C990B009719F4206297
:1032B0002B831AC03196E883F9830EC0EA85FB851B
:1032C000099597FF09C02B81019611F080E201C09A
:1032D00080E1822B8B8308C02E813F812F5F3F4F7F
:1032E0002E833F83992702C08FEF9FEFDF91CF910D
:1032F00008950F931F93CF93DF93FB01238121FD4B
:1033000003C08FEF9FEF2CC022FF16C0468157816C
:10331000248135814217530744F4A081B1819D0176
:103320002F5F3F4F208331838C93268137812F5F1E
:103330003F4F2683378314C08B01EC01FB010084CF
:10334000F185E02D0995892BE1F6D80116968D912E
:103350009C911797019616968D939C931797CE0183
:10336000DF91CF911F910F9108950F931F93CF93EA
:10337000DF93CDB7DEB72E97CDBFDEBF0D891E8997
:1033800086E08C8309831A838FEF9FE78D839E836A
:10339000AE01475E5F4F6F89788DCE0101960E9426
:1033A0002613EF81F885E00FF11F10822E96CDBF16
:1033B000DEBFDF91CF911F910F910895FB01238113
:1033C00020FF12C026FD10C08F3F3FEF930761F032
:1033D00082832F7D20642383268137812150310908
:1033E00026833783992708958FEF9FEF0895FA0179
:1033F000AA27283051F1203181F1E8946F936E7F34
:103400006E5F7F4F8F4F9F4FAF4FB1E03ED0B4E024
:103410003CD0670F781F891F9A1FA11D680F791F65
:103420008A1F911DA11D6A0F711D811D911DA11D76
:1034300020D009F468943F912AE0269F1124301986
:10344000305D3193DEF6CF010895462F4770405D21
:103450004193B3E00FD0C9F7F6CF462F4F70405DD0
:103460004A3318F0495D31FD4052419302D0A9F72B
:10347000EACFB4E0A6959795879577956795BA9525
:10348000C9F700976105710508959B01AC010A2EEB
:1034900006945795479537952795BA95C9F7620FC2
:1034A000731F841F951FA01D0895992788270895CD
:0434B000F894FFCFBE
:1034B40000004D452000FF74656D70203D20252ED1
:1034C400326600436865636B2054656D7000546513
:1034D4006D7020746F20486967682C207368757458
:1034E40074696E6720646F776E004F6B0045636884
:1034F4006F206973206F6E004563686F20697320C5
:103504006F666600577269746520616E20636F6D23
:103514006D616E643A2000506C6561736520656E60
:103524007465722061206E756D626572004E756DF2
:1035340062657220697320677265617465722074B4
:1035440068656E20313030206F72206E6F74206198
:10355400206E756D6265720050757420696E20610D
:10356400206E756D626572206265747765656E2084
:103574003020616E642031303000417267756D65B2
:103584006E74206973203130302C2050574D2069DF
:10359400732066756C6C79206F6E0057726F6E675E
:1035A40020496E7075740054727920616761696E88
:1035B40000417267756D656E7420697320302C202C
:1035C40050574D206F66662C2066616E2066756CC0
:1035D4006C20706F77657200417267756D656E74EB
:1035E4002063616E27742073746172742077697428
:1035F4006820300046616E2025750020777269745A
:1036040074656E20746F3A20004E6F206E756D6283
:10361400657220617267756D656E74002020544177
:1036240043484F202D2056414C5545532020207CA3
:1036340000202020202020414C4C2046414E532085
:1036440020202020207C0020544143484F202D205E
:1036540056414C55455300202046414E2043484195
:103664004E4E454C20004368616E6E656C20002010
:1036740076616C75653A2000256C75002D2D2D2D15
:103684002D2D2D2D2D2D2D2D2D2D2D2D2D2D2D2D66
:103694002000202020202020202020207C200053D7
:1036A4006176696E6720646F6E6500454550524FC0
:1036B4004D20686173206265656E20726573657460
:1036C40000417661696C61626C6520636F6D6D6148
:1036D4006E64733A00616C6C203C6F6E2F6F66668B
:1036E4003E0072656164203C66616E206368616EB1
:1036F4006E656C3E006563686F203C6F6E2F6F666D
:10370400663E206E6F2073796E746178203D206967
:1037140073206563686F206F6E206F72206F66661A
:103724003F007265736574656570726F6D2C206EF1
:103734006F2073796E74617800736176652C206EE6
:103744006F2073796E746178007472656E6464615D
:1037540074612C206E6F2073796E746178006865D3
:103764006C702C2077726F6E672073796E74617839
:103774000050574D206F666620616C6C2066616E48
:10378400732C2066616E732066756C6C20706F7785
:1037940065720050574D2066756C6C79206F6E20F1
:1037A400616C6C2066616E732C2066616E73206F91
:1037B4006666004661756C74207072656469637432
:1037C400656420696E2066616E20005452454E4443
:1037D40020444154413A005472656E64206461741B
:1037E4006120666F722066616E20004563686F20F9
:1037F4006F6E004563686F206F6666006563686F6F
:10380400207769746820696E636F727265637420CF
:1038140073796E7461782000416C6C20636F6D6DF8
:10382400616E642077697468206E6F2061726775B9
:103834006D656E747300416C6C20636F6D6D616EA9
:1038440064207769746820696E636F72726563744B
:103854002073796E746178005265616420636F6DC2
:103864006D616E642077697468206E6F2061726781
:10387400756D656E747300310032003300340035A9
:103884000036003700616C6C005265616420776912
:10389400746820696E636F72726563742073796EE5
:1038A4007461780046616E20636F6D6D616E642093
:1038B40077697468206E6F20617267756D656E74C8
:1038C400730046616E207769746820696E636F7255
:1038D400726563742073796E74617800556E6B6ED3
:1038E4006F776E20636F6D6D616E642100616C6C27
:1038F400000000000000000000006563686F000025
:103904000000000000000072656164000000000017
:103914000000000066616E0000000000000000006E
:103924000068656C70000000000000000000736116
:103934007665000000000000000000726573657485
:10394400656570726F6D00007472656E6464617495
:063954006100000000000C
:00000001FF
