:100000000C942B010C944A010C944A010C944A0163
:100010000C944A010C94CE0C0C944A010C944A01A5
:100020000C944A010C944A010C944A010C944A0124
:100030000C944A010C944A010C944A010C944A0114
:100040000C944A010C944A010C944A010C944A0104
:100050000C944A010C944A010C944A010C944A01F4
:100060000C944A010C944A010C944A010C944A01E4
:100070000C944A010C944A010C944A010C944A01D4
:100080000C944A010C944A010C944A010C944A01C4
:100090000C944A010C944A010C944A010C944A01B4
:1000A0000C944A010C944A010C944A010C944A01A4
:1000B0000C944A010C944A010C944A010C944A0194
:1000C0000C944A010C944A010C944A010C944A0184
:1000D0000C944A010C94F90C0C944A010C944A01BA
:1000E0000C944A010C944A010C944A010C944A0164
:1000F0000C944A01130B400B4C0BC70BB30CB60C02
:10010000B90CBC0CBF0C6E616E00696E66000040DD
:100110007A10F35A00A0724E18090010A5D4E80016
:1001200000E87648170000E40B54020000CA9A3B2E
:10013000000000E1F50500008096980000004042B4
:100140000F000000A0860100000010270000000042
:10015000E803000000006400000000000A00000046
:1001600000000100000000002C76D888DC674F08F2
:1001700023DFC1DFAE59E1B1B796E5E3E453C63AF8
:10018000E651997696E8E6C28426EB898C9B62ED6F
:10019000407C6FFCEFBC9C9F40F2BAA56FA5F49029
:1001A000055A2AF75C936B6CF9676DC11BFCE0E4A0
:1001B0000D47FEF520E6B500D0ED902E03009435F6
:1001C00077050080841E080000204E0A000000C849
:1001D0000C333333330F986E12831141EF8D21149A
:1001E000893BE65516CFFEE6DB18D1844B381BF76A
:1001F0007C1D901DA4BBE424203284725E22810009
:10020000C9F124ECA1E53D276364696E6F707375D5
:1002100078585B65666745464700616E006E6669A3
:100220006E69747900CDCCCC3D0AD7233C17B7D189
:100230003877CC2B329595E6241FB14F0A00002069
:10024000410000C84200401C4620BCBE4CCA1B0EE8
:100250005AAEC59D740011241FBECFEFCDBFDFE79E
:10026000DEBF14E4A0E0B0E4E4ECF4E300E00BBF94
:1002700002C007900D92A23CB107D9F725E4A2EC89
:10028000B4E401C01D92A936B207E1F70E94C90C7F
:100290000C94601A0C940000682F70E080E090E0ED
:1002A0000E94BF0D2AE037ED43E25CE30E94500E4E
:1002B00020E030E04FE753E40E94500E0E948E0D84
:1002C000862F0895CF93DF93C82FD62F81110AC0B0
:1002D000862F0E944C018093280AE0E6F4E080819A
:1002E00081608083C13051F48D2F0E944C01809336
:1002F0002A0AE0E6F4E0808182608083C23051F413
:100300008D2F0E944C0180932C0AE0E6F4E080815E
:1003100084608083C33051F48D2F0E944C01809300
:10032000290AE0E6F4E0808188608083C43051F4DB
:100330008D2F0E944C0180936C0AE0E2F4E08081F2
:1003400082608083C53051F48D2F0E944C018093D0
:10035000690AE0E2F4E0808184608083C63051F471
:100360008D2F0E944C0180936B0AE0E2F4E08081C3
:1003700080618083C73051F48D2F0E944C0180939F
:100380006D0AE0E2F4E0808180628083DF91CF91AA
:100390000895811104C080E48093120229C0813045
:1003A00021F481E48093120223C0823021F482E49C
:1003B000809312021DC0833021F483E480931202E3
:1003C00017C0843021F484E48093120211C0853078
:1003D00021F485E4809312020BC0863021F486E478
:1003E0008093120205C0873019F487E480931202CB
:1003F00083E080933E0220910C0B30910D0BC901DC
:10040000A0E0B0E00097A105B10579F09C01AD0135
:10041000220F331F441F551F60E070E788E399E304
:100420000E94CE16CA01B90103C060E070E0CB01A2
:1004300010920C0B10920D0B0895E0EEF5E0868102
:1004400083608683E0E0FAE081E083838FEF87A317
:1004500086A389E0808387E08183818180678183AF
:100460000895E0E2F4E0808188608083838588607D
:100470008387E0EEF5E086818683E0E4FAE081E0C0
:1004800083838FEF87A386A389E0808384E08183C1
:1004900081818067818308950E9431020E941D023C
:1004A000089581E080934204E0E0FBE01486158625
:1004B0001286138680818160808383E181838481B9
:1004C0008160848308959C0191E088ED84BF9093BE
:1004D0007C00E0E4F1E082E0878322873387928327
:1004E00089E780830895880F880F98ED94BF8093E3
:1004F000680008950E944C0287E00E94730260E841
:1005000075E280E090E00E9430090E9451020E9452
:10051000290380E19EE00E9463027894089580910F
:1005200005098823E4F787E0809304090895CF93B1
:10053000DF9383E090E00E940817EC0180910509A9
:100540008823E4F7809108098093CB4480910509C2
:100550008823E4F7809108098093CA4480910509B3
:100560008823E4F7809108098093C94480910509A4
:100570008823E4F7809108098093C8448091C84497
:100580008883809105098823E4F780910809809386
:10059000C7448091C7448983809105098823E4F783
:1005A000809108098093C6448091C6448A830E9442
:1005B0008F02CE01DF91CF910895E5E0F9E09081BF
:1005C00090712081229526952695237031E023276E
:1005D000422F417050E09A01292B232B71F7809311
:1005E00008090895E5E0F9E0808180719081929595
:1005F00096959695937021E09227492F417050E08F
:100600009A01282BC901892B69F783E0809304099B
:10061000089590E0880F991F862B8093070908950D
:1006200060E088E30E9409038CEA0E94DD0283E017
:100630000E94DD0280E00E94DD020E94F2022FE7AC
:1006400089EA93E0215080409040E1F700C000002B
:100650000895E0E0F9E08BE4868381E0838385837D
:1006600083818260838308950F931F936091C844B0
:100670006F70862F90E0A0E0B0E0BC0155274427C2
:100680008091C74490E0982F88272091C644822B00
:10069000A0E0B0E08A019B01082B192B2A2B3B2BF1
:1006A000C901B8010E94BD0D20E030E040E855E3EB
:1006B0000E94500E20E030E048E453E40E94500EC7
:1006C00020E030E048E452E40E94210D6093C244EF
:1006D0007093C3448093C4449093C5441F910F9179
:1006E00008959F938F937F936F9387E090E49F93F8
:1006F0008F9384E395E49F938F930E94BD190E948A
:1007000054050E944D058DB79EB708968DBF9EBFBC
:1007100008950E94100361E088E30E9409030E948B
:100720009702FC0180818093C84481818093C744F3
:1007300082818093C6440E9434036093C2447093C4
:10074000C3448093C4449093C5440E9471032FEF27
:1007500083ED90E3215080409040E1F700C000001D
:100760000895CF92DF92EF92FF920E9489030E9438
:10077000780AC090C244D090C344E090C444F09042
:10078000C54420E030E04CE852E4C701B6010E94C5
:100790004B0E18163CF483E190E40E946D090E9410
:1007A0004D0519C020E030E04AEA52E4C701B60125
:1007B0000E944B0E18164CF48EE190E40E946D09D5
:1007C0000E944D050E94210A06C08AE390E40E941F
:1007D0006D090E944D05FF90EF90DF90CF90089536
:1007E0009091021091FDFCCF9DE923E194BF2093ED
:1007F0000010E82FF0E0FC5E608380E094BF8093FF
:1008000000100895CF93DF93C82FD62F672F0E9433
:10081000F0036D2F81E08C0F0E94F003DF91CF91E8
:100820000895E82FF0E0FC5E80810895CF93DF9378
:10083000D82F0E941104C82F81E08D0F0E9411044F
:100840002C2F30E0322F2227A901482BCA01DF913B
:10085000CF910895CF93DF9380E00E941604C9EEF4
:10086000D4E48883998382E00E9416048A839B8360
:1008700084E00E9416048C839D8386E00E94160407
:100880008E839F8388E00E941604888799878AE078
:100890000E9416048A879B878CE00E9416048C872E
:1008A0009D878EE00E9416048E879F87DF91CF91EF
:1008B0000895803210F08F3731F4873021F08D3079
:1008C00011F08A3061F49091CD44992321F097E0A2
:1008D0009093620802C08093620810926445883049
:1008E00011F08F3791F42091CE449091CF44291389
:1008F0000AC090916445911108C091E090936445BD
:1009000080936208089580936208089580E01CC077
:10091000292F30E04DE0849FF0011124E35BFB4B75
:10092000E20FF31F4081F901E35FFA4B208142138C
:1009300004C0211103C08F5F08959DE09F5F01C037
:1009400090E09D3028F38F5F8930D0F380E00895E8
:10095000883011F08F37B9F49091CF448091CE4414
:10096000981709F451C08091CF44811104C087E1E8
:100970008093CF4405C08091CF4481508093CF4471
:100980001092CD4408959091CD44992399F02091EF
:10099000CE449091CF4430E0291B310921303105FC
:1009A00049F09091CF44973119F49091CE44911130
:1009B0001092CD449091CD44911126C0E091CF4446
:1009C000F0E0E45EFA4B80838091CE442091CF44E6
:1009D00090E0821B9109019741F08091CF448731CB
:1009E00041F48091CE44811104C081E08093CD44D4
:1009F00008958091CF448F5F8093CF448091CF44FE
:100A0000883110F01092CF4408959091CF44809196
:100A1000CE44981791F0E091CE44F0E0E45EFA4BBA
:100A200080819091CE449F5F9093CE449091CE442C
:100A3000983120F01092CE44089580E00895CF932D
:100A4000C0E016C00E940505811102C0CC23A1F0B0
:100A5000813238F0EC2FF0E0E35FFA4B8083CF5F18
:100A600007C0EC2FF0E0E35FFA4B108281E005C095
:100A7000CC3040F381E001C080E0CF910895109226
:100A8000CF441092CE441092CD44089590916408C2
:100A900095FFFCCF8093620808958DE00E94460583
:100AA0008AE00E9446050895CF93C0E00AC0EC2F6B
:100AB000F0E0EC5CFA4B8081882329F00E94460527
:100AC000CF5FC033A0F3CF91089520E030E040E045
:100AD00050E009C0F901E35FFA4B905390834F5FF8
:100AE0005F4F2F5F3F4FF901E35FFA4B9081911108
:100AF000F1CFCA01089580910640882351F08BE020
:100B0000EDE3F0E4A4E3B5E401900D928A95E1F7FA
:100B100008958CE0E8E4F0E4A4E3B5E401900D92DC
:100B20008A95E1F708950E944D0583E1E4E5F0E43C
:100B3000A4E3B5E401900D928A95E1F70E94540573
:100B40000E943F0581E0809364451092D04408954F
:100B5000835F9A4BFC0180818A3080F086E1E7E672
:100B6000F0E4A4E3B5E401900D928A95E1F70E94C8
:100B700054050E944D0584E991E0089590E00895A0
:100B8000813049F480E090E00E94A80580931A45E6
:100B900090931B456FC0823011F580E090E00E9479
:100BA000A80580931A4590931B4581E090E00E9430
:100BB000A8058093094590930A4520911A453091E4
:100BC0001B45A901440F551F220F331F220F331F4E
:100BD000220F331F240F351F820F931F4BC083300A
:100BE00009F046C080E090E00E94A80580931A4575
:100BF00090931B4581E090E00E94A80580930945F1
:100C000090930A4520911A4530911B4521303105BA
:100C100011F4892BE9F08BE2EDE7F0E4A4E3B5E40D
:100C200001900D928A95E1F70E9454050E944D05AE
:100C300082E2E8EAF0E4A4E3B5E401900D928A953B
:100C4000E1F70E9454050E944D0584E991E012C02D
:100C500081E2EAECF0E4A4E3B5E401900D928A9518
:100C6000E1F70E9454050E944D0584E690E002C021
:100C700080E090E085369105DCF08CE0EBEEF0E46E
:100C8000A4E3B5E401900D928A95E1F70E94540522
:100C90000E944D058AE0E7EFF0E4A4E3B5E401909B
:100CA0000D928A95E1F70E9454050E944D0504C0FB
:100CB00080930B4590930C4580910B4590910C458A
:100CC00008950F931F93CF93DF93C0910D45D0E00C
:100CD000E0970E941F05882309F463C00E94650500
:100CE0008C010197C1F480910D4581110DC087E2FF
:100CF000E1E0F1E4A4E3B5E401900D928A95E1F717
:100D00000E9454050E944D0581E00E94C005809319
:100D10000B4590930C4502301105C9F480910D45A7
:100D200081110EC08CE1E8E2F1E4A4E3B5E40190A6
:100D30000D928A95E1F70E9454050E944D0507C067
:100D400082E00E94C00580930B4590930C450330D0
:100D5000110539F483E00E94C00580930B45909300
:100D60000C45DF93CF9384E491E49F938F9384E3C6
:100D700095E49F938F930E94BD190E9454058EE0C5
:100D8000EBE4F1E4A4E3B5E401900D928A95E1F778
:100D90000E9454050F900F900F900F900F900F909E
:100DA0000BC083E1E9E5F1E4A4E3B5E401900D9221
:100DB0008A95E1F70E94540580910B4590910C456E
:100DC000DF91CF911F910F910895CF93DF93C0E0F2
:100DD000D0E009C02AE030E040E050E00E94CE16AA
:100DE000CA01B9012196611571058105910591F737
:100DF0008C2FDF91CF9108950E944D0585E1ECE69F
:100E0000F1E4A4E3B5E401900D928A95E1F70E9424
:100E1000540586E1E1E8F1E4A4E3B5E401900D9224
:100E20008A95E1F70E9454050E944D050E944D05E8
:100E30000895CF93C82F0E94C9012FEF83EF91E04F
:100E4000215080409040E1F700C000008C2F0E94AC
:100E5000C901CB01CF910895CF93DF93C0E0D0E0DB
:100E600037C08C2F0E941907AC01CE01880F991F43
:100E7000FC01E752FB4B40835183FC01E751FB4BE4
:100E800080819181009719F163E1689F9001699FCA
:100E9000300D1124ADECBCEC0E94F916FC01F2956A
:100EA000E295EF70EF27FF70EF279A010E94F91685
:100EB000929582958F7089279F7089278E0F9F1F2B
:100EC000FE01EE0FFF1FE752FB4B808391832196BB
:100ED000C830D10534F2DF91CF910895DF92EF92BF
:100EE000FF920F931F93CF93DF93D82E0E94190781
:100EF000BC01990F880B990B0E94E506811106C071
:100F0000E82EF12C87010F5F1F4F08C0082F10E05B
:100F1000780183E0E81AF108015011090E944D059B
:100F2000C0E0D0E009C080E290E080933445909327
:100F300035450E9454052196EC16FD06A4F780E184
:100F4000E7E9F1E4A4E3B5E401900D928A95E1F7B5
:100F50000E945405C0E0D0E009C080E290E0809398
:100F60003445909335450E94540521960C171D0772
:100F7000A4F78CE790E080933445909335450E9428
:100F800054050E944D05C0E0D0E009C080E290E029
:100F900080933445909335450E9454052196EC1674
:100FA000FD06A4F7C4E3D5E48FE0E7EAF1E4DE014F
:100FB00001900D928A95E1F70E945405ED2CF12CD9
:100FC0001F92DF9288E491E49F938F93DF93CF93F6
:100FD0000E94BD190E9454050F900F900F900F9022
:100FE0000F900F90C0E0D0E009C080E290E08093C5
:100FF0003445909335450E94540521960C171D07E2
:10100000A4F78CE790E080933445909335450E9497
:1010100054050E944D0500E010E042C0C4E3D5E451
:1010200089E0E6EBF1E4DE0101900D928A95E1F7AB
:101030000E945405FF92EF9288E491E49F938F936E
:10104000DF93CF930E94BD190E94540589E0EFEB16
:10105000F1E4DE0101900D928A95E1F70E945405BA
:101060008D2D0E94C9019F938F937F936F9388EC7E
:1010700091E49F938F93DF93CF930E94BD190E94B9
:1010800054058CE790E0888399830E9454050E9460
:101090004D050F5F1F4F8DB79EB70E968DBF9EBF3C
:1010A0000B3011050CF4BACFDF91CF911F910F9146
:1010B000FF90EF90DF9008955F926F927F928F92F2
:1010C0009F92AF92BF92CF92DF92EF92FF920F93D7
:1010D0001F93CF93DF93682E562EC0E0D0E00CC054
:1010E00086E1ECECF1E4A4E3B5E401900D928A957D
:1010F000E1F70E9454052196C430D1058CF30E947B
:101100004D05660C660C712CE30129C004E315E45F
:1011100089E0E6EBF1E4D80101900D928A95E1F7C0
:101120000E945405DF93CF9388E491E49F938F93BB
:101130001F930F930E94BD190E9454058DE0E2EEAB
:10114000F1E4D80101900D928A95E1F70E945405CF
:1011500021960F900F900F900F900F900F907301AA
:1011600083E0E80EF11CEC16FD0684F60E944D05A6
:10117000C12CD12C53C0C4E3D5E489E0E6EBF1E403
:10118000DE0101900D928A95E1F70E9454051F93AC
:101190000F9388E491E49F938F93DF93CF930E9402
:1011A000BD190E945405802F0E9419074C01990F08
:1011B000AA08BB0889E0EFEBF1E4DE0101900D9293
:1011C0008A95E1F70E945405BF92AF929F928F9249
:1011D00088EC91E49F938F93DF93CF930E94BD1986
:1011E0000E94540580E29CE78883998380E290E026
:1011F0008A839B830E9454050F5F1F4F8DB79EB754
:101200000E968DBF9EBF01C08301E016F1060CF063
:10121000B2CF0E944D059FEFC91AD90A852D90E0E3
:10122000C816D9068CF30E944D05DF91CF911F910E
:101230000F91FF90EF90DF90CF90BF90AF909F9075
:101240008F907F906F905F9008950E94FC0665E0FC
:1012500080E00E945C0865E081E00E945C080895DF
:10126000E0E6F8E08AE09AE1808791871092E20553
:10127000A0E2B4E08C9181608C9380E8858380EC5F
:10128000868383E0878312860895CF93C091600898
:10129000CA3051F0CD3061F0C1110DC080910640CF
:1012A0008095809306400AC08091CC448D3031F007
:1012B00081E08093D0448C2F0E94A8048091064046
:1012C000882339F08091640885FF03C08C2F0E9429
:1012D0005904C093CC44CF910895BC0184E395E4B4
:1012E0000E9431190E9454050895CF93DF93C9EDF0
:1012F000D4E46881798180E00E9402046A817B8164
:1013000082E00E9402046C817D8184E00E940204DC
:101310006E817F8186E00E9402046885798588E07D
:101320000E9402046A857B858AE00E9402046C8523
:101330007D858CE00E9402046E857F858EE00E9490
:1013400002048FEE91E40E946D09DF91CF91089520
:1013500060E070E080E00E94020460E070E082E003
:101360000E94020460E070E084E00E94020460E0F9
:1013700070E086E00E94020460E070E088E00E9475
:10138000020460E070E08AE00E94020460E070E025
:101390008CE00E94020460E070E08EE00E94020493
:1013A0008BEF91E40E946D0908950E941F05811141
:1013B0002FC081E192E40E946D090E944D0585E2F3
:1013C00092E40E946D090E944D0582E392E40E941E
:1013D0006D090E944D0585E492E40E946D090E940A
:1013E0004D0582E792E40E946D090E944D0589E84F
:1013F00092E40E946D090E944D0589E992E40E94E1
:101400006D090E944D058EEA92E40E946D090895CF
:101410008EEB92E40E946D090895CF93DF93C0E0B4
:10142000D0E005C060E08C2F0E9462012196C83098
:10143000D105C4F381ED92E40E946D09DF91CF9153
:101440000895CF93DF93C0E0D0E005C064E68C2F11
:101450000E9462012196C830D105C4F383EF92E463
:101460000E946D09DF91CF9108957F936F9328E4D7
:1014700031E43F932F939F938F930E94BD190E9455
:1014800054050F900F900F900F900F900F900895AC
:10149000CF93DF93C0E0D0E025C0FE01EE0FFF1F29
:1014A000E751FB4B808191810097D9F043E6489F3B
:1014B0009001499F300D1124FE01EE0FFF1FE752EE
:1014C000FB4B808191818217930758F483E193E469
:1014D0000E946D09BE0184E395E40E94350A0E94D2
:1014E0004D052196C830D105C4F2DF91CF91089502
:1014F0000E940D0A0E944D050E942A040E942C079A
:101500000E94480A0E9475090895CF93DF930E94B4
:101510002A040E944D058BE293E40E946D090E940B
:101520004D050E944D05C0E0D0E01BC087E393E469
:101530000E946D09BE0184E395E40E94350A84E6A9
:1015400090E40E946D09FE01EE0FFF1FE751FB4B77
:101550006081718184E395E40E94350A0E944D0503
:101560002196C830D10514F3DF91CF91089560E53D
:1015700073E48DE095E40E942819892B79F48FEFAC
:101580008093064088E0EBE4F3E4A4E3B5E4019043
:101590000D928A95E1F70E945405089568E573E479
:1015A0008DE095E40E942819892B71F41092064071
:1015B00089E0E3E5F3E4A4E3B5E401900D928A95B4
:1015C000E1F70E94540508958CE1ECE5F3E4A4E30F
:1015D000B5E401900D928A95E1F70E9454056DE003
:1015E00075E484E395E40E9431190E9454050E9439
:1015F0004D0508958091D044882309F4C9C10E9403
:101600004D050E941F05882309F4C0C10E9486046D
:1016100090E0FC013197E930F10508F0B3C1E658DC
:10162000FF4F0C94F0160E941F0581110CC08EE133
:10163000E8E7F3E4A4E3B5E401900D928A95E1F7BD
:101640000E945405A3C160E573E48DE095E40E9417
:101650002819892B19F40E940D0A98C168E573E4D2
:101660008DE095E40E942819892B19F40E94210A23
:101670008DC186E993E40E946D090E944D0586C1E3
:101680000E941F05811105C00E947B050E94540520
:101690007DC10E94B70A7AC10E941F05811105C051
:1016A00088EB93E40E946D0971C162E471E48DE0FE
:1016B00095E40E942819892B21F480E00E946E078E
:1016C00065C167ED73E48DE095E40E942819892BCC
:1016D00021F481E00E946E0759C169ED73E48DE049
:1016E00095E40E942819892B21F482E00E946E075C
:1016F0004DC16BED73E48DE095E40E942819892BB0
:1017000021F483E00E946E0741C16DED73E48DE02A
:1017100095E40E942819892B21F484E00E946E0729
:1017200035C16FED73E48DE095E40E942819892B93
:1017300021F485E00E946E0729C161EE73E48DE01B
:1017400095E40E942819892B21F486E00E946E07F7
:101750001DC163EE73E48DE095E40E942819892B86
:1017600021F487E00E946E0711C165EE73E48DE0FD
:1017700095E40E942819892B19F40E94250906C1B5
:1017800089EE93E40E946D090E944D05FFC00E94FE
:101790001F05811105C084E094E40E946D09F6C024
:1017A00062E471E48DE095E40E942819892BB9F474
:1017B0000E9461068093074590930845682F80E05A
:1017C0000E946201609107457091084584E395E4A9
:1017D0000E94350A809107458093D144D7C067EDB8
:1017E00073E48DE095E40E942819892B99F40E94F6
:1017F00061068093054590930645682F81E00E941D
:101800006201609105457091064584E395E40E946C
:10181000350ABCC069ED73E48DE095E40E94281997
:10182000892B99F40E9461068093034590930445A7
:10183000682F82E00E946201609103457091044527
:1018400084E395E40E94350AA1C06BED73E48DE05A
:1018500095E40E942819892B99F40E9461068093CF
:10186000014590930245682F83E00E9462016091D8
:1018700001457091024584E395E40E94350A86C0D3
:101880006DED73E48DE095E40E942819892B99F49D
:101890000E9461068093FF4490930045682F84E086
:1018A0000E9462016091FF447091004584E395E4D9
:1018B0000E94350A6BC06FED73E48DE095E40E94E1
:1018C0002819892B99F40E9461068093FD44909316
:1018D000FE44682F85E00E9462016091FD44709192
:1018E000FE4484E395E40E94350A50C061EE73E43F
:1018F0008DE095E40E942819892B99F40E946106D5
:101900008093FB449093FC44682F86E00E94620120
:101910006091FB447091FC4484E395E40E94350A95
:1019200035C063EE73E48DE095E40E942819892B9D
:1019300099F40E9461068093F9449093FA44682FC9
:1019400087E00E9462016091F9447091FA4484E357
:1019500095E40E94350A1AC082E294E40E946D095F
:101960000E944D0513C00E94D50910C00E94780A3C
:101970000DC00E94A8090AC00E94850A07C00E94E3
:10198000890304C08CE394E40E946D090E949305CE
:1019900008950E947A020E94FA0AFDCF1F920F92C8
:1019A0000FB60F9211240BB60F922F933F934F93C4
:1019B0005F936F937F938F939F93AF93BF93EF93B7
:1019C000FF9381E0809343010E94B103FF91EF9167
:1019D000BF91AF919F918F917F916F915F914F9147
:1019E0003F912F910F900BBE0F900FBE0F901F9045
:1019F00018951F920F920FB60F9211240BB60F92EB
:101A00002F933F934F935F936F937F938F939F9306
:101A1000AF93BF93EF93FF930E944509FF91EF911E
:101A2000BF91AF919F918F917F916F915F914F91F6
:101A30003F912F910F900BBE0F900FBE0F901F90F4
:101A400018955058BB27AA270E94390D0C94110EE7
:101A50000E94030E38F00E940A0E20F039F49F3FD6
:101A600019F426F40C94000E0EF4E095E7FB0C94A8
:101A7000FA0DE92F0E94220E58F3BA176207730776
:101A80008407950720F079F4A6F50C94440E0EF423
:101A9000E0950B2EBA2FA02D0B01B90190010C017E
:101AA000CA01A0011124FF27591B99F0593F50F496
:101AB000503E68F11A16F040A22F232F342F4427EE
:101AC000585FF3CF469537952795A795F0405395E6
:101AD000C9F77EF41F16BA0B620B730B840BBAF0B6
:101AE0009150A1F0FF0FBB1F661F771F881FC2F721
:101AF0000EC0BA0F621F731F841F48F48795779535
:101B00006795B795F7959E3F08F0B0CF9395880FEE
:101B100008F09927EE0F9795879508950E942A0E51
:101B200088F09F5798F0B92F9927B751B0F0E1F09E
:101B3000660F771F881F991F1AF0BA95C9F714C04E
:101B4000B13091F00E94440EB1E008950C94440E1F
:101B5000672F782F8827B85F39F0B93FCCF3869587
:101B600077956795B395D9F73EF4909580957095E4
:101B700061957F4F8F4F9F4F0895E89409C097FB61
:101B80003EF490958095709561957F4F8F4F9F4F54
:101B90009923A9F0F92F96E9BB279395F695879598
:101BA00077956795B795F111F8CFFAF4BB0F11F45B
:101BB00060FF1BC06F5F7F4F8F4F9F4F16C0882302
:101BC00011F096E911C0772321F09EE8872F762F38
:101BD00005C0662371F096E8862F70E060E02AF079
:101BE0009A95660F771F881FDAF7880F9695879565
:101BF00097F9089597F99F6780E870E060E008958D
:101C00009FEF80EC089500240A9416161706180614
:101C10000906089500240A941216130614060506F0
:101C20000895092E0394000C11F4882352F0BB0F81
:101C300040F4BF2B11F460FF04C06F5F7F4F8F4FE4
:101C40009F4F089557FD9058440F551F59F05F3F1F
:101C500071F04795880F97FB991F61F09F3F79F0CE
:101C600087950895121613061406551FF2CF469550
:101C7000F1DF08C0161617061806991FF1CF8695D2
:101C80007105610508940895E894BB2766277727B6
:101C9000CB0197F908950E94BD0E08F48FEF0895C7
:101CA0000E94630E0C94110E0E94030E38F00E94E5
:101CB0000A0E20F0952311F00C94FA0D0C94000EEE
:101CC00011240C94450E0E94220E70F3959FC1F3CF
:101CD000950F50E0551F629FF001729FBB27F00DDA
:101CE000B11D639FAA27F00DB11DAA1F649F66272F
:101CF000B00DA11D661F829F2227B00DA11D621F7E
:101D0000739FB00DA11D621F839FA00D611D221F37
:101D1000749F3327A00D611D231F849F600D211D1B
:101D2000822F762F6A2F11249F5750409AF0F1F09E
:101D300088234AF0EE0FFF1FBB1F661F771F881F07
:101D400091505040A9F79E3F510580F00C94FA0D38
:101D50000C94450E5F3FE4F3983ED4F38695779557
:101D60006795B795F795E7959F5FC1F7FE2B880FAD
:101D7000911D9695879597F90895990F0008550F2D
:101D8000AA0BE0E8FEEF16161706E807F907C0F001
:101D900012161306E407F50798F0621B730B840B09
:101DA000950B39F40A2661F0232B242B252B21F4E3
:101DB00008950A2609F4A140A6958FEF811D811D83
:101DC000089520FD09C0FC0123FD05C022FF02C0CB
:101DD0007383628351834083089544FD17C046FD99
:101DE00017C0AB01BC01DA01FB01AA0FBB1FEE1F3C
:101DF000FF1F1094D1F74A0F5B1F6E1F7F1FCB018F
:101E0000BA01660F771F881F991F09C033E001C010
:101E100034E0660F771F881F991F3150D1F7620F8A
:101E2000711D811D911D08950F931F93CF93DF9313
:101E30008C01C8010E944319EC0197FD08C00E9463
:101E40000119892BB1F7B801CE010E94E619CE0124
:101E5000DF91CF911F910F9108958F929F92AF9232
:101E6000BF92CF92DF92EF92FF920F931F93CF9387
:101E7000DF937C018B016A01D22F0E9443199C01E0
:101E800033272B32310521F02D32310559F4D0683A
:101E90000150110911F480E06BC0C7010E94431981
:101EA00097FDF9CFCD2FCD7F2D2F207319F58033DE
:101EB00009F5580181E0A81AB10809F445C0C70125
:101EC0000E94431997FD40C09C012F7D3327283580
:101ED000310551F4C26402501109B1F1C7010E94E9
:101EE000431997FF07C030C0D6FF02C0C26001C0CF
:101EF000C2618501812C912C540120ED280F2830DE
:101F000080F0C4FF04C0B7010E94E6191AC02A304D
:101F100040F0C6FFF8CF2F7D3FEE320F363098F7F6
:101F200027504C2FC501B4010E94ED0E4B015C01FE
:101F3000C2600150110959F0C7010E94431997FF6F
:101F4000DCCFC1FD04C0A7CF812C912C5401C7FF69
:101F500008C0B094A09490948094811C911CA11C02
:101F6000B11C2C2FB501A401C6010E94E10E81E035
:101F7000DF91CF911F910F91FF90EF90DF90CF9065
:101F8000BF90AF909F908F9008954F925F926F9205
:101F90007F928F929F92AF92BF92CF92DF92EF92F9
:101FA000FF920F931F93CF93DF93CDB7DEB7A09728
:101FB000CDBFDEBF5C014B017A018E010F5F1F4F69
:101FC000680180E2F80111928A95E9F7F5015380E2
:101FD00040E050E0612C90E0712CA1E0B0E0F9010C
:101FE00053FC859153FE81918F01482E9F018111F1
:101FF00003C080E090E096C08E3519F4411551057C
:1020000051F1672D70E0641775073CF48D3561F16F
:102010008D3219F4992311F103C0992309F46DC08D
:10202000842D869586958695F601E80FF11D842D01
:1020300087708D0102C0000F111F8A95E2F7C80159
:102040009081892B8083641459F0461410F44394D2
:10205000E7CF4A94E5CF7724739403C091E001C0A1
:1020600090E04F5F5F4FBBCF992319F08E81806264
:102070008E83711003C07724739419C0F6019E01FA
:102080002F5D3F4F8081809581932E173F07D1F7B9
:10209000F2CFE114F10431F0F7018083B7016F5FF3
:1020A0007F4F7B0171E0871A9108712CF9F0C5010F
:1020B0000E94431997FD18C0FC01FF2723E0F59506
:1020C000E7952A95E1F7EC0DFD1D208130E0AC018C
:1020D0004770552702C0359527954A95E2F720FDB0
:1020E000D8CFB5010E94E619711083CFE114F10435
:1020F00011F0F7011082C80115C0682F669566952A
:102100006695F601E60FF11D682F67708D0102C01C
:10211000000F111F6A95E2F7B8017081672B608389
:10212000682E9FCFA096CDBFDEBFDF91CF911F91CC
:102130000F91FF90EF90DF90CF90BF90AF909F9066
:102140008F907F906F905F904F9008952F923F9265
:102150004F925F926F927F929F92AF92BF92CF9277
:10216000DF92EF92FF920F931F93CF93DF936C0157
:102170008B011A010E944319EC0199278B329105BA
:1021800029F08D9781F430E8932E01C0912C0150F5
:10219000110911F480E00CC1C6010E944319EC0141
:1021A00097FF02C0F7CF912CCE010E940A19893601
:1021B000910531F08E36910599F5CAE1D2E002C061
:1021C000CDE1D2E02196FE013197B490BB20C9F059
:1021D0000150110991F0C6010E9443197C0197FD3D
:1021E0000CC00E940A199927EB2DF0E08E179F076B
:1021F00049F3B601C7010E94E619C052D24051F618
:1022000003C0CD51D24029F080E090E0A0E8BFE7C4
:1022100004C080E090E0A0ECBFE7BC01CD01B8C0F5
:10222000412C512C3201E12CF12C2C2F20532A303F
:1022300010F5E92DE260BE2E892D887092FE06C051
:10224000811120C0FFEFEF1AFF0A1CC0882319F08C
:1022500081E0E81AF10840E2C301B2010E94ED0EEC
:102260002B013C01683979498949994158F0F92D88
:10227000F660BF2E07C02E3F89F493FC0FC0292DB6
:102280002860B22E0150110941F0C6010E94431985
:10229000EC019B2C97FFC9CF01C09B2C91FE7ACFFC
:1022A000CE018F7D99278534910509F042C05801F0
:1022B00081E0A81AB10809F46DCFC6010E94431944
:1022C000EC0197FD67CF99278B32910529F08D9707
:1022D00069F4E92DE0619E2E5801F2E0AF1AB108D1
:1022E00009F458CFC6010E944319EC01CE01C097F2
:1022F0000A9708F04FCF8501A12CB12CB501BB0C7A
:10230000880B990B2C2F205340E20E94ED0E5B01AD
:102310000150110939F0C6010E944319EC01C09720
:102320000A9760F394FE03C0B194A194B108EA0C3B
:10233000FB1C012B31F0D7FD04C0B601CE010E9479
:10234000E619C301B2010E94BD0DF7FE06C0F1946B
:10235000E194F108C9E3D2E002C0C1E5D2E06E0128
:1023600028E1C21AD10800E210E0E016F10650F0B0
:10237000FE0125913591459154910E94500EE01A2D
:10238000F10AF3CF249716950795CC16DD0669F769
:1023900097FE05C0DC01CB01B058BC01CD01211472
:1023A000310429F0F101608371838283938381E09A
:1023B000DF91CF911F910F91FF90EF90DF90CF9021
:1023C000BF90AF909F907F906F905F904F903F90A5
:1023D0002F9008956F927F928F929F92AF92BF92AB
:1023E000CF92DF92EF92FF920F931F93CF93DF93E1
:1023F0005C01EB014A01FC0116821782612CF50198
:102400000381FE0103FD859103FF8191182FEF01E8
:10241000882309F40FC190E00E940119892B21F053
:10242000C5010E94140FEBCF153241F4FE0103FDEC
:10243000159103FF1191EF01153281F4C5010E943E
:10244000431997FDF5C0412F50E09C013327241715
:102450003507A9F2B5010E94E619ECC01A3241F421
:1024600003FD159103FF1191EF017724739401C0CF
:10247000712CE12CF12C20ED210F2A3088F4F72D5E
:10248000F2607F2EB70180E090E040E20E94ED0E06
:102490007B01FE0103FD159103FF1191EF01EBCFCD
:1024A00071FE04C0E114F10421F4C4C0EE24EA94E6
:1024B000FE2C183619F01C3661F014C0FE0103FD25
:1024C000159103FF1191EF01183661F4872D886093
:1024D000782E972D9460792EFE0103FD159103FF50
:1024E0001191EF01112309F4A5C0612F70E088E07C
:1024F00092E00E941219892B09F49CC070FC07C05D
:10250000F401C080D180C40102964C0102C0C12CEC
:10251000D12C1E3651F4F5014681578160E070E000
:10252000272DC6010E94E10E6ACF1336B9F471FC63
:1025300003C0EE24E394F12CC5010E94431997FDDA
:1025400077C0C114D10429F0F6018083C601019639
:102550006C0191E0E91AF10879F766C01B3559F46E
:102560009E01A601B701C5010E94C50FEC01892B90
:1025700009F05AC054C0C5010E94140F97FD58C0FD
:102580001F36E1F140F41436A9F11936D1F11835AE
:1025900009F03EC02BC01337A9F018F4103731F101
:1025A00037C0153739F1183709F132C0C114D104D9
:1025B00029F0F6010083C60101966C0191E0E91A49
:1025C000F10871F0C5010E9443198C0197FD08C004
:1025D0000E940119892B51F3B501C8010E94E61927
:1025E000C114D10409F1F60110821EC0F72DF06468
:1025F0007F2E07C0872D8062782E03C0972D9061B3
:10260000792E272DA601B701C5010E942D0F05C007
:10261000A601B701C5010E94A610811105C0F501F0
:102620008381807329F406C070FCE9CE6394E7CE01
:10263000662019F0862D90E002C08FEF9FEFDF91AA
:10264000CF911F910F91FF90EF90DF90CF90BF90AF
:10265000AF909F908F907F906F9008952F923F92B0
:102660004F925F926F927F928F929F92AF92BF92A2
:10267000CF92DF92EF92FF920F931F93CF93DF934E
:10268000CDB7DEB76097CDBFDEBF7C011B016A010D
:10269000FC0116821782838181FF44C39E012F5F54
:1026A0003F4F3901F7019381F10193FD859193FF2C
:1026B00081911F01882309F431C3853239F493FDD8
:1026C000859193FF81911F01853239F4B70190E024
:1026D0000E94811956016501E5CF10E0512C912C23
:1026E000FFE1F915D8F08B3279F038F4803279F0C7
:1026F0008332A1F4F92DF0612EC08D3261F0803368
:1027000069F4292D21602DC0392D3260932E892D39
:102710008460982E2AC0E92DE86015C097FC2DC072
:1027200020ED280F2A3088F496FE06C03AE0139F69
:10273000200D1124122F19C08AE0589E200D11245B
:10274000522EE92DE0629E2E10C08E3231F496FC9E
:10275000E5C2F92DF0649F2E08C08C3621F4292D96
:102760002068922E02C0883641F4F10193FD8591D4
:1027700093FF81911F018111B3CF9BEB980F933091
:1027800020F4992D9061805E07C09BE9980F9330EB
:1027900008F066C1992D9F7E96FF16E09F73992ED3
:1027A000853619F49064992E08C0863621F4392FA5
:1027B0003068932E02C01111115097FE07C01C33D0
:1027C00050F444244394410E27E00BC0183038F0F5
:1027D00027E017E005C027E09CE3492E02C0212F27
:1027E000412C560184E0A80EB11CF6016081718174
:1027F00082819381042DA3010E9429186C01F98123
:10280000FC87F0FF02C0F3FF06C091FC06C092FEF9
:1028100006C000E205C00DE203C00BE201C000E00B
:102820008C858C7019F001115AC29BC297FE10C0A2
:102830004C0CFC85F4FF04C08A81813309F44A946E
:10284000141474F528E0241578F588E0482E2CC07F
:1028500096FC2AC0812F90E08C159D059CF03CEFE2
:10286000C3163FEFD30674F0892D8068982E0AC0F6
:10287000E2E0F0E0EC0FFD1FE10FF11D80818033FD
:1028800019F411501111F4CF97FE0EC04424439453
:10289000410E812F90E0C816D9062CF41C1904C0F3
:1028A0004424439401C010E097FE06C01C141D048C
:1028B00034F4C601019605C085E090E002C081E0D5
:1028C00090E001110196112331F0212F30E02F5FAC
:1028D0003F4F820F931F252D30E08217930714F48A
:1028E000581A01C0512C892D897049F4552039F0AE
:1028F000B70180E290E00E9481195A94F7CF00233B
:1029000029F0B701802F90E00E94811993FC09C043
:10291000552039F0B70180E390E00E9481195A9464
:10292000F7CF97FE4CC04601D7FE02C0812C912CF8
:10293000C60188199909F301E80FF91FED87FE8791
:102940009601241931092F87388B012F10E011953A
:10295000019511093FEF8316930629F4B7018EE222
:1029600090E00E948119C814D9044CF08F85988991
:102970008815990524F4ED85FE85818101C080E3E9
:10298000F1E08F1A91082D853E852F5F3F4F2D87EF
:102990003E87801691062CF0B70190E00E948119C5
:1029A000D9CFC814D90441F49A81963320F49533D1
:1029B00019F43C8534FF81E3B70190E04EC08A8171
:1029C000813319F09C859F7E9C87B70190E00E941F
:1029D0008119111105C094FC18C085E690E017C05C
:1029E000B7018EE290E00E9481191E5F82E001E053
:1029F000080FF301E80FF11D8081B70190E00E94FC
:102A00008119802F0113F3CFE6CF85E490E0B70161
:102A10000E948119D7FC06C0C114D10441F4EC8591
:102A2000E4FF05C0D194C194D1088DE201C08BE2CE
:102A3000B70190E00E94811980E32AE0C216D10418
:102A40002CF08F5FFAE0CF1AD108F7CFB70190E0F2
:102A50000E948119B701C601C0960E94811954C114
:102A6000833631F0833779F0833509F056C020C0C2
:102A7000560132E0A30EB11CF6018081898301E08A
:102A800010E0630112C05601F2E0AF0EB11CF60176
:102A9000C080D18096FE03C0612F70E002C06FEF4E
:102AA0007FEFC6010E9438198C01F92DFF7714C001
:102AB000560122E0A20EB11CF601C080D18096FE24
:102AC00003C0612F70E002C06FEF7FEFC6010E946C
:102AD0001D198C01F92DF0689F2EF3FD1AC0852D6C
:102AE00090E008171907A8F4B70180E290E00E946F
:102AF00081195A94F4CFF60197FC859197FE819144
:102B00006F01B70190E00E94811951105A94015051
:102B100011090115110579F7F7C0843611F08936CE
:102B200061F5560197FE09C024E0A20EB11CF60122
:102B300060817181828193810AC0F2E0AF0EB11C85
:102B4000F60160817181072E000C880B990BF92D1D
:102B5000FF769F2E97FF09C090958095709561959F
:102B60007F4F8F4F9F4FF0689F2E2AE030E0A301E8
:102B70000E94FF19C82EC6183FC0092D853721F4C1
:102B80000F7E2AE030E01DC0097F8F3691F018F4E7
:102B9000883559F0C3C0803719F0883711F0BEC0AE
:102BA000006104FF09C0046007C094FE08C006600D
:102BB00006C028E030E005C020E130E002C020E19E
:102BC00032E0560107FF09C084E0A80EB11CF601EF
:102BD000608171818281938108C0F2E0AF0EB11CE7
:102BE000F6016081718180E090E0A3010E94FF19ED
:102BF000C82EC6180F77902E96FE0BC0092D0E7F9B
:102C0000C11650F494FE0AC092FC08C0092D0E7E35
:102C100005C0DC2C092D03C0DC2C01C0D12E04FF23
:102C20000DC0FE01EC0DF11D8081803311F4097E91
:102C300009C002FF06C0D394D39404C0802F8678C5
:102C400009F0D39403FD11C000FF06C01C2DD5145C
:102C500080F4150D1D190DC0D51458F4B70180E28C
:102C600090E00E948119D394F7CFD51410F45D1829
:102C700001C0512C04FF10C0B70180E390E00E9416
:102C8000811902FF17C001FD03C088E790E002C070
:102C900088E590E0B7010CC0802F867859F001FFDD
:102CA00002C08BE201C080E207FD8DE2B70190E037
:102CB0000E948119C11638F4B70180E390E00E94A8
:102CC00081191150F7CFCA94F301EC0DF11D8081E9
:102CD000B70190E00E948119C110F5CF15C0F4E052
:102CE000F51560F584E0581A93FE1FC0011127C046
:102CF0002C8523FF2AC006E011E0392D3071932E78
:102D0000F8018491811124C0552009F4E4CCB70165
:102D100080E290E00E9481195A94F6CFF7018681F3
:102D2000978126C08FEF9FEF23C0B70180E290E02C
:102D30000E9481195A945110F8CFD8CF512CB70165
:102D4000802F90E00E948119D3CF0AE011E0D5CF07
:102D500091108052B70190E00E9481190F5F1F4FC0
:102D6000CFCF23E0251510F483E0BDCF512CC0CF89
:102D70006096CDBFDEBFDF91CF911F910F91FF9085
:102D8000EF90DF90CF90BF90AF909F908F907F900B
:102D90006F905F904F903F902F900895A1E21A2E70
:102DA000AA1BBB1BFD010DC0AA1FBB1FEE1FFF1FEF
:102DB000A217B307E407F50720F0A21BB30BE40B3F
:102DC000F50B661F771F881F991F1A9469F7609586
:102DD0007095809590959B01AC01BD01CF01089540
:102DE000EE0FFF1F0024001C0BBE0790F691E02D94
:102DF0000994A29FB001B39FC001A39F700D811DD4
:102E00001124911DB29F700D811D1124911D0895F3
:102E10000F931F93CF93DF938230910510F482E0DC
:102E200090E0E0916745F091684520E030E0A0E057
:102E3000B0E0309719F14081518102811381481728
:102E40005907C8F08417950769F4109731F0129666
:102E50000C93129713961C9327C000936745109309
:102E6000684522C02115310519F04217530718F49F
:102E70009A01BD01EF01DF01F801DBCF211531051A
:102E8000F9F0281B390B2430310580F48A819B81AD
:102E90006115710521F0FB018283938304C0809347
:102EA000674590936845FE01329644C0FE01E20FEB
:102EB000F31F8193919322503109288339833AC0BB
:102EC0002091654530916645232B41F420910240C5
:102ED0003091034020936545309366452091004032
:102EE000309101402115310541F42DB73EB7409195
:102EF000044050910540241B350BE0916545F0914D
:102F00006645E217F307A0F42E1B3F0B281739077D
:102F100078F0AC014E5F5F4F2417350748F04E0F35
:102F20005F1F40936545509366458193919302C01E
:102F3000E0E0F0E0CF01DF91CF911F910F91089574
:102F4000CF93DF93009709F481C0FC01329712827E
:102F50001382A0916745B0916845109781F4208154
:102F60003181820F931F2091654530916645281766
:102F7000390751F5E0936545F093664567C0ED016B
:102F800020E030E0CE17DF0740F44A815B819E01EC
:102F900041155105F1F0EA01F5CFC283D383408199
:102FA0005181840F951FC817D90759F488819981D9
:102FB000840F951F0296808391838A819B818283EF
:102FC00093832115310529F4E0936745F093684513
:102FD0003DC0E901EA83FB8349915991C40FD51F94
:102FE000EC17FD0761F480819181840F951F029693
:102FF000E90188839983828193818A839B83E0E0BE
:10300000F0E012968D919C911397009719F0FD01B5
:10301000DC01F7CF8D919C9111979D012E5F3F4F61
:10302000820F931F20916545309166452817390717
:1030300069F4309729F4109267451092684502C0F0
:1030400012821382A0936545B0936645DF91CF91BC
:103050000895283008F027E03327DA01990F311D51
:1030600087FD916000966105710539F432602E5F2D
:103070003D9330E32A95E1F708959F3F30F0803883
:103080007105610509F03C5F3C5F3D93913008F0AC
:103090008068911DDF93CF931F930F93FF92EF9260
:1030A000192F987F9695E92F96959695E90FFF270A
:1030B000E859FE4F99273327EE24FF24A701E701A3
:1030C00005900894079428F4360FE71EF81E491F50
:1030D000511D660F771F881F991F0694A1F7059051
:1030E000079428F4E70EF81E491F561FC11D770FDD
:1030F000881F991F661F0694A1F70590079428F46E
:10310000F80E491F561FC71FD11D880F991F661F34
:10311000771F0694A1F70590079420F4490F561FD6
:10312000C71FD81F990F661F771F881F0694A9F71E
:1031300084911095177041F0D695C795579547958E
:10314000F794E7941A95C1F7EEE0F1E068941590D2
:10315000159135916591959105907FE27395E118F0
:10316000F10A430B560BC90BD009C0F7E10CF11E55
:10317000431F561FC91FD01D7EF4703311F48A956A
:10318000E6CFE894015030F0080F0AF40027021748
:1031900008F4202F2395022F7A3328F079E37D93CA
:1031A0002A95E9F710C07D932A9589F6069497959C
:1031B0006795379517951794E118F10A430B560B4D
:1031C000C90BD00998F023957E9173957A3308F056
:1031D00070E37C932013B8F77E9170617D9330F09B
:1031E000839571E37D9370E32A95E1F71124EF90C5
:1031F000FF900F911F91CF91DF91992787FD9095B7
:10320000089591110C945D1A803219F089508550FF
:10321000C8F708959111089581548A5108F4805E89
:10322000855A0895FC010590061621F00020D9F773
:10323000C00108953197CF010895FC0105906150B8
:1032400070400110D8F7809590958E0F9F1F0895BC
:10325000FB01DC018D91019080190110D9F3990BCC
:103260000895FB01DC0101900D920020E1F7089523
:10327000FC016150704001900110D8F78095909545
:103280008E0F9F1F0895CF93DF93EC012B8120FFBA
:1032900033C026FF0AC02F7B2B838E819F8101962E
:1032A0008E839F838A8190E029C022FF0FC0E8812E
:1032B000F9818081082E000C990B009719F4206287
:1032C0002B831AC03196E883F9830EC0EA85FB850B
:1032D000099597FF09C02B81019611F080E201C08A
:1032E00080E1822B8B8308C02E813F812F5F3F4F6F
:1032F0002E833F83992702C08FEF9FEFDF91CF91FD
:1033000008950F931F93CF93DF93FB01238121FD3A
:1033100003C08FEF9FEF2CC022FF16C0468157815C
:10332000248135814217530744F4A081B1819D0166
:103330002F5F3F4F208331838C93268137812F5F0E
:103340003F4F2683378314C08B01EC01FB010084BF
:10335000F185E02D0995892BE1F6D80116968D911E
:103360009C911797019616968D939C931797CE0173
:10337000DF91CF911F910F9108950F931F93CF93DA
:10338000DF93CDB7DEB72E97CDBFDEBF0D891E8987
:1033900086E08C8309831A838FEF9FE78D839E835A
:1033A000AE01475E5F4F6F89788DCE0101960E9416
:1033B0002E13EF81F885E00FF11F10822E96CDBFFE
:1033C000DEBFDF91CF911F910F910895FB01238103
:1033D00020FF12C026FD10C08F3F3FEF930761F022
:1033E00082832F7D206423832681378121503109F8
:1033F00026833783992708958FEF9FEF0895FA0169
:10340000AA27283051F1203181F1E8946F936E7F23
:103410006E5F7F4F8F4F9F4FAF4FB1E03ED0B4E014
:103420003CD0670F781F891F9A1FA11D680F791F55
:103430008A1F911DA11D6A0F711D811D911DA11D66
:1034400020D009F468943F912AE0269F1124301976
:10345000305D3193DEF6CF010895462F4770405D11
:103460004193B3E00FD0C9F7F6CF462F4F70405DC0
:103470004A3318F0495D31FD4052419302D0A9F71B
:10348000EACFB4E0A6959795879577956795BA9515
:10349000C9F700976105710508959B01AC010A2EDB
:1034A00006945795479537952795BA95C9F7620FB2
:1034B000731F841F951FA01D0895992788270895BD
:0434C000F894FFCFAE
:1034C400000069452000FF74656D70203D20252EA5
:1034D400326600436865636B2054656D7000546503
:1034E4006D7020746F20486967682C207368757448
:1034F40074696E6720646F776E004F6B0045636874
:103504006F206973206F6E004563686F20697320B4
:103514006F666600577269746520616E20636F6D13
:103524006D616E643A2000506C6561736520656E50
:103534007465722061206E756D626572004E756DE2
:1035440062657220697320677265617465722074A4
:1035540068656E20313030206F72206E6F74206188
:10356400206E756D6265720050757420696E2061FD
:10357400206E756D626572206265747765656E2074
:103584003020616E642031303000417267756D65A2
:103594006E74206973203130302C2050574D2069CF
:1035A400732066756C6C79206F6E0057726F6E674E
:1035B40020496E7075740054727920616761696E78
:1035C40000417267756D656E7420697320302C201C
:1035D40050574D206F66662C2066616E2066756CB0
:1035E4006C20706F77657200417267756D656E74DB
:1035F4002063616E27742073746172742077697418
:103604006820300046616E20257500207772697449
:1036140074656E20746F3A20004E6F206E756D6273
:10362400657220617267756D656E74002020544167
:1036340043484F202D2056414C5545532020207C93
:1036440000202020202020414C4C2046414E532075
:1036540020202020207C0020544143484F202D204E
:1036640056414C55455300202046414E2043484185
:103674004E4E454C20004368616E6E656C20002000
:1036840076616C75653A2000256C75002D2D2D2D05
:103694002D2D2D2D2D2D2D2D2D2D2D2D2D2D2D2D56
:1036A4002000202020202020202020207C200053C7
:1036B4006176696E6720646F6E6500454550524FB0
:1036C4004D20686173206265656E20726573657450
:1036D40000417661696C61626C6520636F6D6D6138
:1036E4006E64733A00616C6C203C6F6E2F6F66667B
:1036F4003E0072656164203C66616E206368616EA1
:103704006E656C3E006563686F203C6F6E2F6F665C
:10371400663E206E6F2073796E746178203D206957
:1037240073206563686F206F6E206F72206F66660A
:103734003F007265736574656570726F6D2C206EE1
:103744006F2073796E74617800736176652C206ED6
:103754006F2073796E746178007472656E6464614D
:1037640074612C206E6F2073796E746178007465B7
:103774006D702C206E6F2073796E746178006865AB
:103784006C702C2077726F6E672073796E74617819
:103794000050574D206F666620616C6C2066616E28
:1037A400732C2066616E732066756C6C20706F7765
:1037B40065720050574D2066756C6C79206F6E20D1
:1037C400616C6C2066616E732C2066616E73206F71
:1037D4006666004661756C74207072656469637412
:1037E400656420696E2066616E20005452454E4423
:1037F40020444154413A005472656E6420646174FB
:103804006120666F722066616E20004563686F20D8
:103814006F6E004563686F206F6666006563686F4E
:10382400207769746820696E636F727265637420AF
:1038340073796E7461782000416C6C20636F6D6DD8
:10384400616E642077697468206E6F206172677599
:103854006D656E747300416C6C20636F6D6D616E89
:1038640064207769746820696E636F72726563742B
:103874002073796E746178005265616420636F6DA2
:103884006D616E642077697468206E6F2061726761
:10389400756D656E74730031003200330034003589
:1038A4000036003700616C6C0052656164207769F2
:1038B400746820696E636F72726563742073796EC5
:1038C4007461780046616E20636F6D6D616E642073
:1038D40077697468206E6F20617267756D656E74A8
:1038E400730046616E207769746820696E636F7235
:1038F400726563742073796E74617800556E6B6EB3
:103904006F776E20636F6D6D616E642100616C6C06
:10391400000000000000000000006563686F000004
:1039240000000000000000726561640000000000F7
:103934000000000066616E0000000000000000004E
:103944000068656C700000000000000000007361F6
:103954007665000000000000000000726573657465
:10396400656570726F6D00007472656E6464617475
:10397400610000000074656D70000000000000002C
:02398400000041
:00000001FF
